:020000040800F2
:10000000680500200101000891020008890200082B
:100010008D0200086D010008790C00080000000046
:100020000000000000000000000000002D08000893
:100030007101000800000000A90200084109000841
:100040001B0100081B0100081B0100081B01000820
:100050001B0100081B0100081B0100081B01000810
:100060001B0100081B0100081B0100081B01000800
:100070001B0100081B0100081B0100081B010008F0
:100080001B0100081B0100081B0100081B010008E0
:100090001B0100081B0100081B0100081B010008D0
:1000A0001B010008A50900081B0100081B0100082E
:1000B000C9090008E90900080D0A00081B01000829
:1000C0001B0100081B0100081B0100081B010008A0
:1000D0001B010008590A0008E50A0008710B000816
:1000E0001B0100081B0100081B010008DFF80CD0F1
:1000F00000F02AF8004800479D0C00086805002021
:100100000648804706480047FEE7FEE7FEE7FEE7B1
:10011000FEE7FEE7FEE7FEE7FEE7FEE7450900082B
:10012000ED000008D2B201E000F8012B491EFBD21D
:1001300070470022F6E710B513460A4604461946F2
:10014000FFF7F0FF204610BD064C074D06E0E068C3
:1001500040F0010394E8070098471034AC42F6D30E
:10016000FFF7C8FFCC0C0008EC0C000800BFFEE74E
:1001700070472DE9F04102460025002600200023AB
:100180000024002791F803C00CF00F0591F803C07C
:100190000CF0100CBCF1000F03D091F802C04CEA37
:1001A000050591F800C0BCF1000F31D014680020A3
:1001B0002BE04FF0010C0CFA00F3B1F800C00CEA90
:1001C00003069E4220D183004FF00F0C0CFA03F778
:1001D000BC4305FA03FC4CEA040491F803C0BCF1EB
:1001E000280F06D14FF0010C0CFA00FCC2F814C025
:1001F0000AE091F803C0BCF1480F05D14FF0010CA3
:100200000CFA00FCC2F810C0401C0828D1D31460BE
:10021000B1F800C0BCF1FF0F34DD546800202EE0BF
:1002200000F1080C4FF0010808FA0CF3B1F800C017
:100230000CEA03069E4221D183004FF00F0C0CFA0A
:1002400003F7BC4305FA03FC4CEA040491F803C02D
:10025000BCF1280F05D100F1080C08FA0CF8C2F81F
:10026000148091F803C0BCF1480F07D100F1080CCD
:100270004FF0010808FA0CF8C2F81080401C08285A
:10028000CED35460BDE8F08100BFFEE700BFFEE7BB
:100290007047000002490143024A116070470000A4
:1002A0000000FA050CED00E07047000010B56FF09B
:1002B000040000F031FB08480068C0080749B0FBA3
:1002C000F1F007490860084600684FF47A71484326
:1002D0000449086010BD00000000002040420F00EB
:1002E000140000201800002001460020114A126866
:1002F0004A434FF0E0235A6100229A611A4612697C
:1003000042F001021A6100BF4FF0E022106900F0D4
:1003100001021AB100F48032002AF5D04FF0E02239
:10032000126922F001024FF0E0231A6100229A6163
:10033000704700001800002001460020114A126892
:100340004A434FF0E0235A6100229A611A4612692B
:1003500042F001021A6100BF4FF0E022106900F084
:1003600001021AB100F48032002AF5D04FF0E022E9
:10037000126922F001024FF0E0231A6100229A6113
:10038000704700001400002070B50024042000F025
:10039000E7F90546062000F0E3F90646B54206D027
:1003A000A81B44B2002C02DA04F1200044B220461B
:1003B00070BD00002DE9FC47074688460024002553
:1003C0000026FFF7E1FFC4B2A9460AE0684600F044
:1003D0006BF9009805440198064409F1010000F00A
:1003E000FF09A145F2DB1CB1B5FBF4F5B6FBF4F651
:1003F00041F2883085420ED986420CD94FF4E16033
:10040000B5FBF0F00D4908704FF4AF60B6FBF0F0AB
:100410000B49087004E0002008490870084908707A
:10042000002500260548007838700548007888F8CF
:1004300000003220FFF758FFBDE8FC874400002091
:100440004500002010B5002401200F49086000205D
:100450000E49C1F8A0010520FFF76EFF01200B49EE
:10046000C1F8A0010846D0F8240100B101240520FC
:10047000FFF762FF00200449091F08600520FFF70D
:100480005BFF204610BD0000A48121420080214274
:1004900070B50025002401201349086000BF17E053
:1004A0006006040E00201049091F08600520FFF7B0
:1004B00043FF01200D49C1F8A0010B4880380068B6
:1004C00008B144F001040520FFF736FF681CC5B2EF
:1004D000082DE5DB00200449091F08600520FFF70F
:1004E0002BFF204670BD0000A481214200802142E4
:1004F00010B5044600200E4908601CB10120091DFA
:10050000086003E000200A49091D08600520FFF784
:1005100013FF0120064908600520FFF70DFF0020AA
:100520000449C1F8A0010520FFF706FF10BD000037
:10053000A08121420080214270B50446002500BF01
:100540001AE000201149086004F0800018B1012071
:10055000091D086003E000200C49091D0860052002
:10056000FFF7EAFE0120094908600520FFF7E4FED5
:100570006006040E681CC5B2082DE2DB00200349AA
:1005800008600520FFF7D8FE70BD0000A081214261
:1005900010B501200A4908600A49C1F8A0010520E8
:1005A000FFF7CAFE0020064908600520FFF7C4FED9
:1005B00000200449C1F8A0010520FFF7BDFE10BDD1
:1005C000A48121420080214210B500200749086023
:1005D00001200749C1F8A0010520FFF7ADFE012069
:1005E000024908600520FFF7A7FE10BDA481214243
:1005F0000080214208B54FF48070ADF8000014204F
:100600008DF8030003208DF8020069462348FFF7A8
:10061000B0FD4FF40070ADF8000069461F48FFF7C9
:10062000A8FD01201E4908601E49C1F8A00105204F
:10063000FFF782FE4021092000F0B2F80A20FFF700
:1006400053FEC021022000F0ABF80021032000F08F
:10065000A7F80021042000F0A3F80021052000F0F5
:100660009FF80021062000F09BF85F21082000F091
:1006700097F80321092000F093F827210A2000F0C1
:100680008FF827210C2000F08BF827210D2000F097
:1006900087F87F21102000F083F808BD000C01408E
:1006A000A4812142008021421CB50446FFF770FF5F
:1006B000AE20FFF741FFFFF7C5FE0720FFF73CFF25
:1006C000FFF7C0FEFFF764FFAF20FFF735FFFFF72E
:1006D000B9FEFFF7DDFE8DF800000020FFF708FFF0
:1006E000FFF7D6FE8DF801000020FFF701FFFFF7AE
:1006F000CFFE8DF802000020FFF7FAFEFFF7C8FEDC
:100700008DF803000020FFF7F3FEFFF7C1FE8DF820
:1007100004000020FFF7ECFEFFF7BAFE8DF805009D
:100720000120FFF7E5FEFFF74FFF9DF800000004F2
:100730009DF8011040EA01209DF802100843C0F323
:10074000110020609DF8030000049DF8041040EAA9
:1007500001209DF805100843C0F3110060601CBD26
:1007600070B504460025FFF713FFAE20FFF7E4FE47
:10077000FFF768FE2046FFF7DFFEFFF763FEFFF797
:1007800007FFAF20FFF7D8FEFFF75CFEFFF780FE04
:1007900005460120FFF7ACFEFFF716FF284670BDA7
:1007A00070B505460C46FFF7F3FEAE20FFF7C4FE1A
:1007B000FFF748FE2846FFF7BFFEFFF743FE20463F
:1007C000FFF7BAFEFFF73EFEFFF7FEFE70BD00002A
:1007D00010B5012144F60C2000F018F80121024860
:1007E00000F004F810BD00000700060029B1064A19
:1007F000D2690243044BDA6104E0034AD2698243BE
:10080000014BDA61704700000010024029B1064A2E
:1008100092690243044B9A6104E0034A926982435D
:10082000014B9A617047000000100240704710B5FC
:1008300000F002F810BD00000CB5002001900090FF
:100840003348006840F480303149086000BF3048C8
:10085000006800F4003000900198401C019000985E
:1008600018B90198B0F5A06FF1D12948006800F4DB
:10087000003010B10120009001E0002000900098AD
:10088000012843D12348006840F010002149086046
:100890000846006820F0030008600846006840F041
:1008A000020008601A4840681949486008464068D4
:1008B00048600846406840F48060486008464068E8
:1008C00020F47C1048600846406840F4E810486016
:1008D0000846006840F08070086000BF0C4800685F
:1008E00000F000700028F9D00948406820F00300AB
:1008F000074948600846406840F00200486000BF71
:100900000348406800F00C000828F9D10CBD000035
:100910000010024000200240042808D14FF0E021DE
:10092000096941F004014FF0E022116107E04FF046
:10093000E021096921F004014FF0E02211617047C4
:100940007047000010B51348006840F001001149DD
:10095000086008464068104908400E49486008464B
:1009600000680E4908400B4908600846006820F4FA
:10097000802008600846406820F4FE0048604FF47C
:100980001F008860FFF753FF4FF0006004490860C4
:1009900010BD0000001002400000FFF8FFFFF6FE4F
:1009A00008ED00E010B50121054800F044F830B131
:1009B0000121034800F03CF802480068804710BD60
:1009C000002C01403400002010B50121880700F000
:1009D00032F830B10121880700F02AF80148006898
:1009E000804710BD3800002010B50121054800F0F7
:1009F00022F830B10121034800F01AF802480068DB
:100A0000804710BD000400403C00002010B50121CB
:100A1000054800F010F830B10121034800F008F853
:100A200002480068804710BD0008004040000020D8
:100A3000CA430282704730B50246002000230024DA
:100A4000158A05EA0103958905EA010413B10CB181
:100A5000012000E0002030BD10B540F225511D48B6
:100A600000F0DBF8B8B140F225511A4800F0C6F8A2
:100A7000184800F0FCF8044617480088102800DBEE
:100A800010BD1649144A12888C5413480088401C23
:100A9000114908801BE040F224410E4800F0BDF8E7
:100AA000A8B140F224410B4800F0A8F8094800F032
:100AB000DEF80446084801880848094A1268904749
:100AC00010210648FFF735FB00200349088000BFCE
:100AD000D6E70000003801401C000020480000203C
:100AE0002000002010B540F225511D4800F095F877
:100AF000B8B140F225511A4800F080F8184800F0CB
:100B0000B6F8044617480088102800DB10BD1649C7
:100B1000144A12888C5413480088401C11490880DC
:100B20001BE040F224410E4800F077F8A8B140F2F3
:100B300024410B4800F062F8094800F098F8044698
:100B4000084801880848094A126890471021064859
:100B5000FFF7EFFA00200349088000BFD6E7000046
:100B600000440040240000205800002028000020FD
:100B700010B540F225511D4800F04FF8B8B140F2D1
:100B800025511A4800F03AF8184800F070F8044669
:100B900017480088FF2800DD10BD1649144A128846
:100BA0008C5413480088401C114908801CE040F216
:100BB00024410E4800F031F8B0B140F224410B4816
:100BC00000F01CF8094800F052F804460848018873
:100BD0000848094A126890474FF480710548FFF7AA
:100BE000A8FA00200249088000BFD5E7004800406D
:100BF0002C000020680000203000002010B50022EA
:100C0000002340F66A14A14200D100BF0A12012459
:100C10009440A3B2DC43048010BD70B502460024AA
:100C200000230025002040F66A16B14200D100BF23
:100C3000C1F3421501F01F03012606FA03F3012D4B
:100C400002D19689334006E0022D02D1168A334044
:100C500001E0968A33400C12012606FA04F4168845
:100C6000344013B10CB1012000E0002070BD0146FA
:100C70008888C0F30800704700BFFEE702E008C89C
:100C8000121F08C1002AFAD170477047002001E006
:100C900001C1121F002AFBD1704700004FF4A06071
:100CA000FFF7F8FAFFF794FDFFF700FBFFF7A2FC50
:100CB00006E004490448FFF77DFB0520FFF714FB1D
:100CC000F7E700004700002046000020EC0C000879
:100CD00000000020480000007C0C0008340D0008D3
:100CE00048000020200500008C0C000800A24A04E7
:100CF00000000000000000000102030406070809CC
:100D000000000000000000000000000000000000E3
:100D100000000000000000000000000000000000D3
:100D200000000000000000000000000000000000C3
:040D300000000000BF
:04000005080000ED02
:00000001FF
