:020000040800F2
:10000000800600208901000851020008490200080A
:100010004D0200084302000805040008000000002B
:100020000000000000000000000000008D02000839
:10003000470200080000000069020008A103000850
:10004000A3010008A3010008A3010008A301000800
:10005000A3010008A3010008A3010008A3010008F0
:10006000A3010008A3010008A3010008A3010008E0
:10007000A3010008A3010008A3010008A3010008D0
:10008000A3010008A3010008A3010008A3010008C0
:10009000A3010008A3010008A3010008A3010008B0
:1000A000A3010008A3010008A3010008A3010008A0
:1000B000A3010008A3010008A3010008A301000890
:1000C000A3010008A3010008A3010008A301000880
:1000D000A3010008A3010008A3010008A301000870
:1000E000A3010008A3010008A301000800F002F822
:1000F00000F03AF80AA090E8000C82448344AAF188
:100100000107DA4501D100F02FF8AFF2090EBAE885
:100110000F0013F0010F18BFFB1A43F0010318473B
:100120005C0300007C030000103A24BF78C878C14B
:10013000FAD8520724BF30C830C144BF04680C60ED
:10014000704700000023002400250026103A28BF35
:1001500078C1FBD8520728BF30C148BF0B60704739
:100160001FB51FBD10B510BD00F031F81146FFF7E7
:10017000F7FF00F049F900F04FF803B4FFF7F2FF82
:1001800003BC00F057F800000948804709480047C1
:10019000FEE7FEE7FEE7FEE7FEE7FEE7FEE7FEE737
:1001A000FEE7FEE704480549054A064B7047000094
:1001B000A5030008ED000008800000208006002054
:1001C000800200208002002070477047704775460B
:1001D00000F02CF8AE4605006946534620F00700B3
:1001E000854618B020B5FFF7DDFFBDE820404FF091
:1001F00000064FF000074FF000084FF0000B21F011
:100200000701AC46ACE8C009ACE8C009ACE8C009DD
:10021000ACE8C0098D46704710B50446AFF30080C6
:100220002046BDE81040FFF7A8BF00000048704717
:100230001C00002001491820ABBEFEE7260002008A
:10024000704700BFFEE7704700BFFEE700BFFEE754
:100250007047000002490143024A116070470000E4
:100260000000FA050CED00E07047000029B1064AD5
:1002700092690243044B9A6104E0034A9269824303
:10028000014B9A617047000000100240704710B5A2
:1002900000F002F810BD00000CB5002001900090A5
:1002A0003348006840F480303149086000BF30486E
:1002B000006800F4003000900198401C0190009804
:1002C00018B90198B0F5A06FF1D12948006800F481
:1002D000003010B10120009001E000200090009853
:1002E000012843D12348006840F0100021490860EC
:1002F0000846006820F0030008600846006840F0E7
:10030000020008601A484068194948600846406879
:1003100048600846406840F480604860084640688D
:1003200020F47C1048600846406840F4E8104860BB
:100330000846006840F08070086000BF0C48006804
:1003400000F000700028F9D00948406820F0030050
:10035000074948600846406840F00200486000BF16
:100360000348406800F00C000828F9D10CBD0000DB
:100370000010024000200240042808D14FF0E02184
:10038000096941F004014FF0E022116107E04FF0EC
:10039000E021096921F004014FF0E022116170476A
:1003A0007047000010B51348006840F00100114983
:1003B000086008464068104908400E4948600846F1
:1003C00000680E4908400B4908600846006820F4A0
:1003D000802008600846406820F4FE0048604FF422
:1003E0001F008860FFF753FF4FF00060044908606A
:1003F00010BD0000001002400000FFF8FFFFF6FEF5
:1004000008ED00E000BFFEE700F008F84FF4A06040
:10041000FFF720FF00F014F800BFFEE710B5012140
:100420000420FFF723FF01210820FFF71FFF012110
:100430001020FFF71BFF01210846FFF717FF10BD33
:1004400010B56FF00400FFF797FF08480068C00878
:100450000749B0FBF1F007490860084600684FF40F
:100460007A7148430449086010BD0000080000206C
:1004700040420F0000000020040000209C040008FF
:10048000000000201C00000028010008B80400083B
:100490001C00002064060000440100080000000069
:1004A0000000000000A24A0400000000000000005C
:0804B00001020304060708091C
:04000005080000ED02
:00000001FF
