:020000040800F2
:1000000000050020010100087B01000873010008C1
:10001000770100086D010008A90500080000000034
:10002000000000000000000000000000D5010008F2
:10003000710100080000000091010008E9020008B9
:100040001B0100081B0100081B0100081B01000820
:100050001B0100081B0100081B0100081B01000810
:100060001B0100081B0100081B0100081B01000800
:100070001B0100081B0100081B0100081B010008F0
:100080001B0100081B0100081B0100081B010008E0
:100090001B0100081B0100081B0100081B010008D0
:1000A0001B0100081B0100081B0100081B010008C0
:1000B0001B0100081B0100081B0100081B010008B0
:1000C0001B0100081B0100081B0100081B010008A0
:1000D0001B0100084D030008DD030008850400082B
:1000E0001B0100081B0100081B010008DFF80CD0F1
:1000F00000F02AF800480047CB0500080005002062
:100100000648804706480047FEE7FEE7FEE7FEE7B1
:10011000FEE7FEE7FEE7FEE7FEE7FEE7ED0200088A
:10012000ED000008D2B201E000F8012B491EFBD21D
:1001300070470022F6E710B513460A4604461946F2
:10014000FFF7F0FF204610BD064C074D06E0E068C3
:1001500040F0010394E8070098471034AC42F6D30E
:10016000FFF7C8FF340600085406000800BFFEE78A
:10017000704700BFFEE700BFFEE77047024901433A
:10018000024A1160704700000000FA050CED00E023
:100190007047000029B1064AD2690243044BDA6174
:1001A00004E0034AD2698243014BDA6170470000E0
:1001B0000010024029B1064A92690243044B9A6139
:1001C00004E0034A92698243014B9A617047000040
:1001D00000100240704710B500F002F810BD00009A
:1001E0000CB50020019000903348006840F4803046
:1001F0003149086000BF3048006800F400300090CA
:100200000198401C0190009818B90198B0F5A06FB2
:10021000F1D12948006800F4003010B101200090AD
:1002200001E0002000900098012843D12348006895
:1002300040F01000214908600846006820F00300E3
:1002400008600846006840F0020008601A484068EC
:10025000194948600846406848600846406840F4CC
:10026000806048600846406820F47C10486008467A
:10027000406840F4E81048600846006840F080702C
:10028000086000BF0C48006800F000700028F9D03A
:100290000948406820F00300074948600846406864
:1002A00040F00200486000BF0348406800F00C00C6
:1002B0000828F9D10CBD00000010024000200240C7
:1002C000042808D14FF0E021096941F004014FF002
:1002D000E022116107E04FF0E021096921F00401FB
:1002E0004FF0E022116170477047000010B51348CD
:1002F000006840F001001149086008464068104954
:1003000008400E494860084600680E4908400B49FD
:1003100008600846006820F48020086008464068AD
:1003200020F4FE0048604FF41F008860FFF753FF81
:100330004FF000600449086010BD0000001002404A
:100340000000FFF8FFFFF6FE08ED00E010B540F2F8
:100350002551204800F0F9F808B340F225511D4816
:1003600000F0E4F81B4800F01AF904461A49496CF9
:10037000194A54541046406C401C114648640846C3
:10038000406C402825DB0846416C826C9047002079
:100390001149486440211048FFF7CBFE19E040F2B4
:1003A00024410C4800F0D1F898B140F224410948AA
:1003B00000F0BCF8074800F0F2F804460648416C2B
:1003C000826C904700200449486440210248FFF7AE
:1003D000B0FE10BD003801401C00002010B540F2F6
:1003E0002551264800F0B1F848B340F22551234882
:1003F00000F09CF8214800F0D2F804462048D0F8DC
:1004000090204C3084544C38D0F89000401C1C494B
:10041000C1F890000846D0F8900040282DDB08462F
:10042000D0F89010D0F894204C3090470021144818
:10043000C0F8901040214C30FFF77BFE1DE040F2E9
:1004400024410E4800F081F8B8B140F224410B4835
:1004500000F06CF8094800F0A2F804460848D0F80B
:100460009010D0F894204C30904700210448C0F8F8
:10047000901040214C30FFF75CFE10BD004400405E
:100480001C00002010B540F22551264800F05DF810
:1004900048B340F22551234800F048F8214800F0C5
:1004A0007EF804462048D0F8DC20983084549838F0
:1004B000D0F8DC00401C1C49C1F8DC000846D0F82C
:1004C000DC0040282DDB0846D0F8DC10D0F8E02016
:1004D0009830904700211448C0F8DC104021983033
:1004E000FFF727FE1DE040F224410E4800F02DF8F2
:1004F000B8B140F224410B4800F018F8094800F068
:100500004EF804460848D0F8DC10D0F8E0209830C7
:10051000904700210448C0F8DC1040219830FFF7D4
:1005200008FE10BD004800401C00002010B500224D
:10053000002340F66A14A14200D100BF0A12012430
:100540009440A3B2DC43048010BD70B50246002481
:1005500000230025002040F66A16B14200D100BFFA
:10056000C1F3421501F01F03012606FA03F3012D22
:1005700002D19689334006E0022D02D1168A33401B
:1005800001E0968A33400C12012606FA04F416881C
:10059000344013B10CB1012000E0002070BD0146D1
:1005A0008888C0F30800704700BFFEE702E008C873
:1005B000121F08C1002AFAD170477047002001E0DD
:1005C00001C1121F002AFBD1704700F008F84FF458
:1005D000A060FFF7D3FD00F00FF800BFFEE710B5F5
:1005E000012144F21D00FFF7E5FD01214FF4C02079
:1005F000FFF7D0FD10BD000010B56FF00400FFF74D
:100600005FFE08480068C0080749B0FBF1F00749E1
:100610000860084600684FF47A714843044908604E
:1006200010BD00000800002040420F000000002024
:100630000400002054060008000000201C000000F8
:10064000AC050008700600081C000020E40400004F
:10065000BC050008000000000000000000A24A04E1
:100660000000000000000000010203040607080962
:04000005080000ED02
:00000001FF
