:020000040800F2
:10000000C005002001010008750100087101000809
:10001000730100086D010008D3050008000000000E
:100020000000000000000000000000004102000885
:100030006F010008000000008D01000805030008A2
:100040001B0100081B0100081B0100081B01000820
:100050001B0100081B0100081B0100081B01000810
:100060001B0100081B0100081B0100081B01000800
:100070001B0100081B0100081B0100081B010008F0
:100080001B0100081B0100081B0100081B010008E0
:100090001B0100081B0100081B0100081B010008D0
:1000A0001B010008590300081B0100081B01000880
:1000B00085030008AD030008D90300081B010008F0
:1000C0001B0100081B0100081B0100081B010008A0
:1000D0001B01000825040008990400080D0500080C
:1000E0001B0100081B0100081B010008DFF80CD0F1
:1000F00000F02AF800480047F3050008C00500207A
:100100000648804706480047FEE7FEE7FEE7FEE7B1
:10011000FEE7FEE7FEE7FEE7FEE7FEE7090300086D
:10012000ED000008D2B201E000F8012B491EFBD21D
:1001300070470022F6E710B513460A4604461946F2
:10014000FFF7F0FF204610BD064C074D06E0E068C3
:1001500040F0010394E8070098471034AC42F6D30E
:10016000FFF7C8FF0C0600082C060008FEE77047E2
:10017000FEE7FEE7704700000249084302490860B5
:10018000704700000000FA050CED00E07047000029
:1001900010B56FF0040000F0A9F8064806494FF4C6
:1001A0007A720068B0FBF1F004490860504348607F
:1001B00010BD00000000002000127A001400002092
:1001C0000B49496848434FF0E021486100238B61A7
:1001D000086940F0010008610869C20701D0C00346
:1001E000FAD5086920F0010008618B6170470000B2
:1001F0001400002010B5012144F60D2000F014F881
:10020000BDE810400121014800F002B807000600D7
:10021000044A0029D16901D0014300E08143D16142
:100220007047000000100240044A0029916901D083
:10023000014300E0814391617047000000100240DB
:10024000704700000CB50022264800920192016818
:1002500041F4803101604FF4A063016801F4003182
:1002600001910099491C0091019911B90099994295
:10027000F3D10168890333D5012101911A490A6834
:1002800042F010020A600A6822F003020A600A685B
:1002900042F002020A604168416041684160416881
:1002A00041F480614160416821F47C114160416802
:1002B00041F4E8114160016841F08071016001681A
:1002C0008901FCD5416821F003014160416841F09A
:1002D000020141604168C1F381010229FAD10CBDDC
:1002E00001920CBD00100240002002404FF0E021BE
:1002F0000428086903D020F004000861704740F02A
:100300000400FAE7704700000F4810B5016841F09B
:100310000101016041680D4A1140416001680C4AC9
:1003200011400160016821F480210160416821F4DD
:10033000FE0141604FF41F018160FFF783FF054913
:100340004FF00060086010BD001002400000FFF890
:10035000FFFFF6FE08ED00E010B5084C0121204635
:1003600000F053F8002808D00121204600F04AF898
:1003700003480068BDE81040004710BD002C014054
:100380003000002010B501218C07204600F03DF818
:10039000002808D00121204600F034F802484068C7
:1003A000BDE81040004710BD3000002010B5084CDB
:1003B0000121204600F029F8002808D0012120461C
:1003C00000F020F803488068BDE81040004710BDE9
:1003D000000400403000002010B5084C01212046E8
:1003E00000F013F8002808D00121204600F00AF898
:1003F0000348C068BDE81040004710BD0008004039
:1004000030000020C9430182704702460020138A51
:1004100092890B4202EA010202D0002A00D0012098
:100420007047000070B5194D40F2255631462846F8
:1004300000F0ACF8164C70B13146284600F0A0F838
:10044000284600F0C2F82188402903D2114A5054AE
:10045000491C218070BD40F224463146284600F0F8
:1004600095F80028F6D03146284600F089F828464D
:1004700000F0ABF8A2682188064890474021054863
:10048000FFF757FE0020208070BD000000380140BB
:100490001C0000204000002070B5194D40F2255688
:1004A0003146284600F072F8164C70B131462846A5
:1004B00000F066F8284600F088F86188402903D2E9
:1004C000114A5054491C618070BD40F224463146A7
:1004D000284600F05BF80028F6D03146284600F0A8
:1004E0004FF8284600F071F8E268618806489047A6
:1004F00040210548FFF71DFE0020608070BD000010
:10050000004400401C0000208000002070B5194D00
:1005100040F225563146284600F038F8164C70B1A6
:100520003146284600F02CF8284600F04EF8A18805
:10053000FF2903D8114A5054491CA18070BD40F2D4
:1005400024463146284600F021F80028F6D03146EE
:10055000284600F015F8284600F037F82269A188EF
:10056000064890474FF480710448FFF7E2FD0020F1
:10057000A08070BD004800401C000020C00000208A
:100580000A0A01219140C9430180704770B501F00A
:100590001F0501260024C1F3421306FA05F2012BC0
:1005A0000FD0022B0FD0838A4FEA1121008813420B
:1005B00006FA01F600EA060001D000B10124204647
:1005C00070BD8389F0E7038AEEE78088C0F30800F6
:1005D0007047FEE702E008C8121F08C1002AFAD1DE
:1005E00070477047002001E001C1121F002AFBD1B3
:1005F00070474FF4A060FFF7BFFDFFF7FBFDFFF76B
:10060000C7FD0520FFF7DCFDFBE700002C06000816
:100610000000002040000000D40500086C0600081F
:100620004000002080050000E405000800A24A0404
:100630000000000000000000010203040607080992
:1006400000000000000000000000000000000000AA
:10065000000000000000000000000000000000009A
:0C0660000000000000000000000000008E
:04000005080000ED02
:00000001FF
