:020000040800F2
:10000000B8060020010100089F01000897010008C0
:100010009B0100086D010008CD07000800000000EA
:1000200000000000000000000000000019020008AD
:100030009501000800000000B50100082D0300082C
:100040001B0100081B0100081B0100081B01000820
:100050001B0100081B0100081B0100081B01000810
:100060001B0100081B0100081B0100081B01000800
:100070001B0100081B0100081B0100081B010008F0
:100080001B0100081B0100081B0100081B010008E0
:100090001B0100081B0100081B0100081B010008D0
:1000A0001B010008910300081B0100081B01000848
:1000B000B9030008DD030008050400081B0100085F
:1000C0001B0100081B0100081B0100081B010008A0
:1000D0001B010008550400084905000845060008F2
:1000E0001B0100081B0100081B010008DFF80CD0F1
:1000F00000F02AF800480047EF070008B806002083
:100100000648804706480047FEE7FEE7FEE7FEE7B1
:10011000FEE7FEE7FEE7FEE7FEE7FEE73103000845
:10012000ED000008D2B201E000F8012B491EFBD21D
:1001300070470022F6E710B513460A4604461946F2
:10014000FFF7F0FF204610BD064C074D06E0E068C3
:1001500040F0010394E8070098471034AC42F6D30E
:10016000FFF7C8FF640800088408000800BFFEE726
:1001700021B1026842F00102026004E002684FF619
:10018000FE731A40026070470146486880B27047AB
:1001900041607047704700BFFEE700BFFEE7704751
:1001A00002490143024A1160704700000000FA054D
:1001B0000CED00E07047000029B1064A5269024385
:1001C000044B5A6104E0034A52698243014B5A616D
:1001D000704700000010024029B1064AD26902436C
:1001E000044BDA6104E0034AD2698243014BDA61CD
:1001F000704700000010024029B1064A926902438C
:10020000044B9A6104E0034A92698243014B9A616C
:100210007047000000100240704710B500F002F86F
:1002200010BD00000CB5002001900090334800681C
:1002300040F480303149086000BF3048006800F465
:10024000003000900198401C0190009818B9019866
:10025000B0F5A06FF1D12948006800F4003010B16A
:100260000120009001E0002000900098012843D177
:100270002348006840F010002149086008460068E3
:1002800020F0030008600846006840F002000860A3
:100290001A4840681949486008464068486008465E
:1002A000406840F4806048600846406820F47C1054
:1002B00048600846406840F4E81048600846006816
:1002C00040F08070086000BF0C48006800F00070CB
:1002D0000028F9D00948406820F003000749486029
:1002E0000846406840F00200486000BF034840688C
:1002F00000F00C000828F9D10CBD000000100240ED
:1003000000200240042808D14FF0E021096941F0A3
:1003100004014FF0E022116107E04FF0E02109698C
:1003200021F004014FF0E022116170477047000096
:1003300010B51348006840F00100114908600846F4
:100340004068104908400E494860084600680E4958
:1003500008400B4908600846006820F480200860C7
:100360000846406820F4FE0048604FF41F00886093
:10037000FFF753FF4FF000600449086010BD000014
:10038000001002400000FFF8FFFFF6FE08ED00E05D
:1003900010B50121064800F04CF8012806D10549A6
:1003A000086880470121024800F040F810BD0000B5
:1003B000002C0140A402002010B50121880700F0A4
:1003C00038F8012806D10449486880470121880788
:1003D00000F02CF810BD0000A402002010B501218F
:1003E000064800F026F8012806D1054988688047AC
:1003F0000121024800F01AF810BD0000000400407E
:10040000A402002010B50121064800F012F80128CE
:1004100006D10549C86880470121024800F006F866
:1004200010BD000000080040A4020020CA43028260
:10043000704730B50246002000230024158A05EAE3
:100440000103958905EA010413B10CB1012000E014
:10045000002030BD70B540F22551384800F087F9D2
:1004600040B340F22551354800F072F9334800F0AE
:10047000A8F904463249D1F8CC10314A54541046F8
:10048000D0F8CC00401C1146C1F8CC000846D0F88A
:10049000CC00C82851DB0846D0F8CC10D0F8D020CA
:1004A000904700202649C1F8CC00C8212448FFF716
:1004B00040FE42E040F22441204800F058F9002874
:1004C0003BD040F224411D4800F042F91B4800F0A7
:1004D00078F904461A4890F8D40070B91848D0F852
:1004E000CC10D0F8D020904700201549C1F8CC009E
:1004F000C8211348FFF71DFE1FE0114890F8D400F3
:1005000001281AD100210F48FFF732FE0D48FFF7EE
:100510003BFEC0F1C8050A482946D0F8D0209047D4
:10052000C8210748FFF705FEC8210648FFF730FE3F
:1005300001210448FFF71CFE00BF70BD00380140D8
:100540001C0000205800024070B540F225513A4886
:1005500000F00DF948B340F22551374800F0F8F8A3
:10056000354800F02EF904463448D0F8A421D8309C
:100570008454D838D0F8A401401C3049C1F8A401F3
:100580000846D0F8A401C82855DB0846D0F8A411C5
:10059000D0F8A821D830904700212848C0F8A411ED
:1005A000C821D830FFF7C5FD45E040F2244122487C
:1005B00000F0DDF800283ED040F224411E4800F053
:1005C000C7F81D4800F0FDF804461C4890F8AC013F
:1005D00078B91A48D0F8A411D0F8A821D83090479B
:1005E00000211648C0F8A411C821D830FFF7A1FD9A
:1005F00021E0124890F8AC0101281CD100211048DC
:10060000FFF7B6FD0E48FFF7BFFDC0F1C8050B4868
:100610002946D0F8A821D8309047C8210748D830BB
:10062000FFF787FDC8210648FFF7B2FD0121044806
:10063000FFF79EFD00BF70BD004400401C0000207D
:100640006C00024070B540F225513D4800F08FF833
:1006500060B340F225513A4800F07AF8384800F08B
:10066000B0F804463748D0F87C2200F5D87084549E
:100670003448D0F87C02401C3249C1F87C0208465C
:10068000D0F87C02C82859DB0846D0F87C12D0F894
:10069000802200F5D870904700212A48C0F87C12CB
:1006A000C82100F5D870FFF744FD47E040F224412F
:1006B000234800F05CF8002840D040F22441204854
:1006C00000F046F81E4800F07CF804461D4890F8FB
:1006D000840288B91B48D0F87C12D0F8802200F53B
:1006E000D870904700211748C0F87C12C82100F547
:1006F000D870FFF71EFD21E0124890F8840201280F
:100700001CD100211048FFF733FD0F48FFF73CFDD7
:10071000C0F1C8050B482946D0F8802200F5D870F2
:100720009047C8210948FFF704FDC8210648FFF794
:100730002FFD01210448FFF71BFD00BF70BD000025
:10074000004800401C00002030000240CC01002086
:1007500010B50022002340F66A14A14200D100BF68
:100760000A1201249440A3B2DC43048010BD70B58A
:100770000246002400230025002040F66A16B142FC
:1007800000D100BFC1F3421501F01F03012606FA94
:1007900003F3012D02D19689334006E0022D02D1E8
:1007A000168A334001E0968A33400C12012606FA7D
:1007B00004F41688344013B10CB1012000E000208D
:1007C00070BD01468888C0F30800704700BFFEE78F
:1007D00002E008C8121F08C1002AFAD1704770470A
:1007E000002001E001C1121F002AFBD1704700F078
:1007F00009F84FF4A060FFF7D3FC00F015F800BF34
:10080000FEE7000010B5012144F61D20FFF7F4FCBF
:1008100001210448FFF7E0FC01210846FFF7CCFC6A
:1008200010BD00000700060010B56FF00400FFF7D0
:1008300069FD08480068C0080749B0FBF1F00749A6
:100840000860084600684FF47A714843044908601C
:1008500010BD00000800002040420F0000000020F2
:100860000400002084080008000000201C00000094
:10087000D0070008A00800081C0000209C0600000B
:10088000E0070008000000000000000000A24A0489
:100890000000000000000000010203040607080930
:04000005080000ED02
:00000001FF
