:020000040800F2
:100000001006002001010008C1080008B908000816
:10001000BD08000883070008D3170008000000008F
:10002000000000000000000000000000291200088D
:100030008707000800000000490900083D13000878
:100040001B0100081B0100081B0100081B01000820
:100050001B0100081B0100081B0100081B01000810
:100060001B0100081B0100081B0100081B01000800
:100070001B0100081B0100081B0100081B010008F0
:100080001B0100081B0100081B0100081B010008E0
:100090001B0100081B0100081B0100081B010008D0
:1000A0001B010008A11300081B0100081B01000828
:1000B000C5130008E5130008091400081B01000817
:1000C0001B0100081B0100081B0100081B010008A0
:1000D0001B01000855140008E11400086D15000804
:1000E0001B0100081B0100081B010008DFF80CD0F1
:1000F00000F004FB00480047D9200008100600204B
:100100000648804706480047FEE7FEE7FEE7FEE7B1
:10011000FEE7FEE7FEE7FEE7FEE7FEE74113000825
:10012000ED000008D2B201E000F8012B491EFBD21D
:1001300070470022F6E710B513460A4604461946F2
:10014000FFF7F0FF204610BD2DE9FE4F81EA0304C2
:1001500004F0004421F0004100944FF0000B23F024
:10016000004350EA01045ED052EA03045BD0C3F3BB
:100170000A54C1F30A552C44A4F2F3340194A0FBB1
:100180000254C1F3130141F48011C3F3130343F488
:10019000801301FB024400FB034E840A970A44EAE1
:1001A000815447EA8357A4FB076802958D0A05FB33
:1001B00007854FEA932C04FB0C542705029D4FEA58
:1001C000065847EA1637B5EB08056EEB070C870EA5
:1001D000920E47EA811742EA8312A7FB0201B6EBAF
:1001E0000B0164EB00042B0D43EA0C335E1844EB67
:1001F0001C50DA465146E7FB0201C5F313044FEAEF
:100200000B3343EA14534FEA0432019C43EA0603DA
:10021000A4F10C040294009CCDE900B400F049F96B
:1002200003B0BDE8F08F00200146F9E72DE9F04D5D
:1002300081EA030404F0004B21F0004514464FF01E
:10024000000A23F0004150EA050220D054EA0102DE
:100250001DD0C5F30A570246C5F31303C1F31300BB
:10026000C1F30A5640F4801543F48013A7EB060847
:10027000101BD64608F2FD3873EB050002D308F1D7
:10028000010801E092185B41B8F1000F03DA002089
:100290000146BDE8F08D00204FF4801106468446EB
:1002A0000EE0171B73EB050705D3121B63EB050369
:1002B00006434CEA010C49084FEA300092185B41B2
:1002C00050EA0107EDD152EA030012D082EA04009D
:1002D00083EA0501084305D0101BAB4106D2012279
:1002E000002306E000224FF0004302E06FF001021D
:1002F00053101AEB06004CEB085110EB0A0041EBCF
:100300000B01BDE8F04D00F0C5B8C10F80EAE07008
:100310000844CA079623002100F08EB896230022D5
:10032000114600F089B800F0004230F000400AD0D9
:10033000C10D01F56071C0F3160042EA0151C20817
:1003400040071143704700200146704701F0004309
:1003500030B421F0004150EA010206D00A0DA2F5A6
:100360006072C1F31301002A02DC30BC0020704728
:10037000440F44EAC104C100E01830BC00EBC25095
:1003800000F051B8002801DBC0F10040002901DB7A
:10039000C1F100418142704730B50B460146002053
:1003A0002022012409E021FA02F59D4205D303FA37
:1003B00002F5491B04FA02F52844151EA2F10102B8
:1003C000F1DC30BD2DE9F05F0546002092469B46EA
:1003D00088460646814640241BE02846414647465B
:1003E000224600F0ACF953465A46C01A914110D348
:1003F00011461846224600F093F92D1A67EB0108C2
:100400004F4622460120002100F08AF917EB00092F
:100410004E41201EA4F10104DFDC484631462A4645
:100420004346BDE8F09F0029A8BF7047401C490023
:1004300008BF20F00100704710B4B0FA80FC00FA49
:100440000CF050EA010404BF10BC704749B1CCF174
:10045000200421FA04F411FA0CF118BF0121214300
:100460000843A3EB0C01CB1D4FEA00614FEA1020BB
:1004700042BF002010BC704700EBC350104400295D
:10048000A4BF10BC7047401C490008BF20F0010009
:1004900010BC704710B5141E73F1000408DA401C3C
:1004A00041F1000192185B411A4301D120F0010093
:1004B00010BD2DE9F04D92469B4611B1B1FA81F283
:1004C00002E0B0FA80F22032904600F029F90446AA
:1004D0000F4640EA0A0041EA0B0153465A460843D8
:1004E00013D0114653EA010019D0C8F1400250461A
:1004F00000F025F905460E4650465946424600F0A2
:100500000FF9084305D0012004E020463946BDE834
:10051000F08D0020054346EAE0762C4337430A98E5
:100520006305E40AA0EB08000022FD0A44EA4754F0
:100530000A3002D500200146E9E70105101969419A
:10054000DDE9084500196941BDE8F04DA2E72DE954
:10055000FE4F804681EA0300C00F0C46009021F058
:10056000004123F00045B8EB0200A94105D2404606
:10057000214690461C460B46024623F0004010439D
:1005800047D0270DC7F30A00C3F30A510290401A5F
:10059000019040286BDAC3F3130040F4801B0098ED
:1005A000924620B10023D2EB030A63EB0B0B0198B8
:1005B0005946C0F14002504600F0B2F806460D46DA
:1005C00050465946019A00F0CAF810EB0800614104
:1005D000002487EA115284EAE7731A4340D0009A54
:1005E00062B3019A012A4FEA075215DC001B61EB46
:1005F00002014FF0004202EA0752CDE90042001C1E
:1006000041F5801132462B46FFF753FF03B0BDE89A
:10061000F08F40462146F9E7001B61EB0201001C08
:1006200041F5801300185B412018A2F5001747EB35
:10063000030140EAD570B6196D4111E06D084FEA2B
:10064000360645EAC0754FEA0752001B61EB02010E
:10065000001C41F5801149084FEA30000019514152
:1006600032462B4603B0BDE8F04FFFF713BF0098AA
:10067000012240000023D0EB020263EBE0730098FC
:1006800021464FEAE074B8EB000061EB0401E9E7B2
:1006900083F000435BE781F0004158E7C1F30A5261
:1006A000C1F3130140F2FF3341F480119A4202DAA0
:1006B00000200146704740F233439A42A2F233428F
:1006C00002DC524200F03BB800F02AB830B5041EFC
:1006D00071F1000404DB4FF00044404264EB01017F
:1006E000141E73F1000405DB1C464FF00043524218
:1006F00063EB0403994208BF904230BD064C074D9E
:1007000006E0E06840F0010394E8070098471034E1
:10071000AC42F6D3FFF7EEFCA4290008C429000878
:10072000202A04DB203A00FA02F1002070479140B1
:10073000C2F1200320FA03F3194390407047202AA6
:1007400004DB203A21FA02F00021704721FA02F37B
:10075000D040C2F120029140084319467047202A38
:1007600006DBCB17203A41FA02F043EAE07306E0D9
:1007700041FA02F3D040C2F12002914008431946E9
:10078000704700BFFEE770472DE9F04102460025A3
:100790000026002000230024002791F803C00CF05D
:1007A0000F0591F803C00CF0100CBCF1000F03D042
:1007B00091F802C04CEA050591F800C0BCF1000FA9
:1007C00031D0146800202BE04FF0010C0CFA00F33C
:1007D000B1F800C00CEA03069E4220D183004FF01E
:1007E0000F0C0CFA03F7BC4305FA03FC4CEA0404B3
:1007F00091F803C0BCF1280F06D14FF0010C0CFAA0
:1008000000FCC2F814C00AE091F803C0BCF1480F24
:1008100005D14FF0010C0CFA00FCC2F810C0401CCE
:100820000828D1D31460B1F800C0BCF1FF0F34DD4B
:10083000546800202EE000F1080C4FF0010808FA7F
:100840000CF3B1F800C00CEA03069E4221D18300EC
:100850004FF00F0C0CFA03F7BC4305FA03FC4CEA0B
:10086000040491F803C0BCF1280F05D100F1080C75
:1008700008FA0CF8C2F8148091F803C0BCF1480FD4
:1008800007D100F1080C4FF0010808FA0CF8C2F883
:100890001080401C0828CED35460BDE8F081024689
:1008A000002093680B400BB1012000E0002070474E
:1008B000416170470161704700BFFEE700BFFEE77E
:1008C0007047000070B5002100230F22C47804B3E4
:1008D000154C246804F4E064C4F5E064210AC1F115
:1008E0000403CA40447804FA03F184781440214395
:1008F00009010E4C0678A155047804F01F05012467
:10090000AC4005786D11AD0005F1E025C5F800415A
:1009100009E0047804F01F050124AC40044D06787A
:10092000761145F8264070BD0CED00E000E400E0D3
:1009300080E100E002490143024A11607047000073
:100940000000FA050CED00E07047322000E000BF27
:10095000011EA0F10102D0B2F9D1704710B56FF0BD
:10096000040000F0D7FC08480068C0080749B0FB45
:10097000F1F007490860084600684FF47A7148436F
:100980000449086010BD00000000002040420F0034
:10099000280000202C00002001460020114A126887
:1009A0004A434FF0E0235A6100229A611A461269C5
:1009B00042F001021A6100BF4FF0E022106900F01E
:1009C00001021AB100F48032002AF5D04FF0E02283
:1009D000126922F001024FF0E0231A6100229A61AD
:1009E000704700002C00002001460020114A1268C8
:1009F0004A434FF0E0235A6100229A611A46126975
:100A000042F001021A6100BF4FF0E022106900F0CD
:100A100001021AB100F48032002AF5D04FF0E02232
:100A2000126922F001024FF0E0231A6100229A615C
:100A3000704700002800002008B503208DF8020050
:100A400010208DF803004001ADF80000694602480F
:100A5000FFF79AFE08BD0000000C014070B50024AD
:100A600019E004F1B001C8B2002100F090F90021B2
:100A7000084600F08CF90021102000F088F90025CC
:100A800005E00121002000F082F9681CC5B2802D2C
:100A9000F7DB601CC4B2082CE3DB70BD08B54FF473
:100AA0008050ADF8000014208DF8030003208DF86D
:100AB000020069460548FFF767FE4FF40050ADF8A5
:100AC000000069460148FFF75FFE08BD000C0140C9
:100AD00010B5012421030B48FFF7ECFE6103094820
:100AE000FFF7E8FEFFF731FF21030648FFF7D7FEC7
:100AF00004464FF400510348FFF7DAFEFFF725FFE5
:100B0000204610BD000C014070B50546002400BF12
:100B10001FE04FF400511448FFF7CAFEFFF715FF1E
:100B200005FA04F000F0800028B14FF480510E481F
:100B3000FFF7C0FE04E04FF480510B48FFF7B8FE0A
:100B40004FF400510848FFF7B5FEFFF7FEFE601CAA
:100B5000C4B2082CDDDB4FF400510348FFF7A8FEB8
:100B6000FFF7F3FE70BD0000000C014010B54FF41C
:100B700080510C48FFF79EFE4FF400510948FFF7E3
:100B800099FEFFF7E2FE4FF480510648FFF790FE12
:100B9000FFF7DBFE4FF400510248FFF789FEFFF735
:100BA000D4FE10BD000C014010B54FF4805109482F
:100BB000FFF77EFE4FF400510648FFF77BFEFFF77C
:100BC000C4FE4FF480510348FFF774FEFFF7BDFEEB
:100BD00010BD0000000C014010B5FFF75FFF0021C1
:100BE000A82000F0D4F800213F2000F0D0F8002128
:100BF000DA2000F0CCF80021122000F0C8F8002123
:100C0000D32000F0C4F80021084600F0C0F800210D
:100C1000402000F0BCF80021A12000F0B8F800212D
:100C2000812000F0B4F80021FF2000F0B0F800218E
:100C3000A42000F0ACF80021A62000F0A8F80021C4
:100C40008D2000F0A4F80021142000F0A0F800216D
:100C5000202000F09CF80021022000F098F80021EC
:100C6000C82000F094F80021B02000F090F8002196
:100C7000084600F08CF80021102000F088F80021D0
:100C8000D92000F084F80021222000F080F8002113
:100C9000DB2000F07CF80021202000F078F8002113
:100CA000AF2000F074F810BD70B505460C4605F194
:100CB000B001C8B2002100F06AF804F00F00002172
:100CC00000F065F804F0F001102202EB2110002181
:100CD00000F05DF870BD00002DE9F04705460F46B5
:100CE0009046072D01DC7F2F01DDBDE8F087A8F1DC
:100CF0002009002415E02919C8B23946FFF7D4FFAE
:100D000000260AE0094901EB091106EBC402885CE0
:100D1000012100F03CF8701CC6B2082EF2DB601C0A
:100D2000C4B2022CE7DB00BFDFE70000B4210008FB
:100D30000FB470B586B006460C4600250DA801908C
:100D400002A8019A0C9900F047FD0020019016E0DE
:100D500002A8425D21463046FFF7BEFF681CC5B2BF
:100D600004F10800C4B27F2C09DDB01CC6B22046D5
:100D7000E11704EB5161C911A4EBC111CCB202A877
:100D8000405D0028E4D106B070BC5DF814FB70B57E
:100D900005460C46FFF7EAFE7820FFF7B5FEFFF7A1
:100DA00097FE1CB90020FFF7AFFE04E0012C02D132
:100DB0004020FFF7A9FEFFF78BFE2846FFF7A4FEB1
:100DC000FFF786FEFFF7F0FE70BD000010B50121B1
:100DD00044F60D2000F0AEF90121024800F09AF926
:100DE00010BD0000070006002DE9F05F04468A46AA
:100DF0004FF00009E07802287ED1A0790006E17961
:100E000000EB0140217A00EB0120617A00EB01093F
:100E10004846FFF783FA8346FFF785FA0746002224
:100E20004A4BFFF703FA0546FFF790FA4849086076
:100E3000A07A0006E17A00EB0140217B00EB012063
:100E4000617B00EB01094846FFF768FA8346FFF72C
:100E50006AFA074600223D4BFFF7E8F90546FFF71F
:100E600075FA3C490860A07B0006E17B00EB01407D
:100E7000217C00EB0120617C00EB01094846FFF773
:100E80004DFA8346FFF74FFA074600222F4BFFF734
:100E9000CDF90546FFF75AFA2F490860A07C0006F5
:100EA000E17C00EB0140217D00EB0120617D00EB46
:100EB00001094846FFF732FA8346FFF734FA07463E
:100EC0000022264BFFF7B2F90546FFF73FFA244907
:100ED0000860A07D0006E17D00EB0140217E00EB73
:100EE0000120617E00EB01094846FFF717FA8346AF
:100EF000FFF719FA074600E026E00022134BFFF740
:100F000095F90546FFF722FA16490860A07E00060B
:100F1000E17E00EB0140217F00EB0120617F00EBCF
:100F200001094846FFF7FAF98346FFF7FCF907463F
:100F300000220D4BFFF77AF90546FFF707FA0B4938
:100F4000086001200A490870BDE8F09F00408F400A
:100F5000580000205C000020600000200088C34092
:100F60006400002068000020000024406C00002085
:100F7000700000202DE9FC4704460D4616461F462A
:100F8000DDE90A9A18A103C9CDE900014FF0000874
:100F900007226946164800F09DF806E00A20FFF790
:100FA00023FD08F101001FFA80F81248007810B9FB
:100FB000B8F5FA7FF2DB1048006820600F4800683F
:100FC00028600F48006830600E48006838600E489E
:100FD0000068C9F800000D480068CAF80000002049
:100FE00004490870BDE8FC87555501020000AD00BA
:100FF0000038014070000020580000205C000020F4
:101000006000002064000020680000206C000020C8
:1010100010B54FF4165000F009F802480249086074
:1010200010BD0000E90D00083400002010B586B0A6
:1010300004464FF40070ADF8140018208DF8170026
:1010400003208DF8160005A92048FFF79DFB4FF4FB
:101050008060ADF8140004208DF8170005A91B4826
:10106000FFF792FB01940020ADF80800ADF80A00EC
:10107000ADF80C000C20ADF80E000020ADF810000B
:1010800001A9134800F030FB25208DF80000032053
:101090008DF8010002208DF8020001208DF8030078
:1010A0006846FFF70FFC012240F22551084800F086
:1010B000F5FA012240F22441054800F0EFFA01213F
:1010C000034800F0A8FA06B010BD00000008014077
:1010D000003801402DE9F04107460D461646002430
:1010E00013E000BF8021384600F0A1FA0028F9D0B3
:1010F000295D384600F069FB00BF4021384600F00A
:1011000096FA0028F9D0601CC4B2B442E9DBBDE80D
:10111000F081000029B1064AD2690243044BDA612A
:1011200004E0034AD2698243014BDA617047000050
:101130000010024029B1064A92690243044B9A61A9
:1011400004E0034A92698243014B9A6170470000B0
:101150000010024030B500210022002400232D4D54
:101160006D6805F00C0121B1042905D0082923D1AF
:1011700005E0294D056022E0274D05601FE0254D63
:101180006D6805F47012234D6D6805F480340225F6
:1011900005EB92421CB9214D554305600BE01D4DF6
:1011A0006D6805F400351DB11C4D5543056002E026
:1011B000194D5543056002E0174D056000BF00BFA3
:1011C000144D6D6805F0F0010909154D6B5C05685B
:1011D000DD4045600F4D6D6805F4E061090A104D72
:1011E0006B5C4568DD4085600A4D6D6805F46051B3
:1011F000C90A0B4D6B5C4568DD40C560054D6D68E7
:1012000005F44041890B074D6B5CC568B5FBF3F5F0
:10121000056130BD0010024000127A0000093D0057
:101220001400002024000020704710B500F002F8E0
:1012300010BD00000CB500200190009033480068FC
:1012400040F480303149086000BF3048006800F445
:10125000003000900198401C0190009818B9019846
:10126000B0F5A06FF1D12948006800F4003010B14A
:101270000120009001E0002000900098012843D157
:101280002348006840F010002149086008460068C3
:1012900020F0030008600846006840F00200086083
:1012A0001A4840681949486008464068486008463E
:1012B000406840F4806048600846406820F47C1034
:1012C00048600846406840F4E810486008460068F6
:1012D00040F08070086000BF0C48006800F00070AB
:1012E0000028F9D00948406820F003000749486009
:1012F0000846406840F00200486000BF034840686C
:1013000000F00C000828F9D10CBD000000100240CC
:1013100000200240042808D14FF0E021096941F083
:1013200004014FF0E022116107E04FF0E02109696C
:1013300021F004014FF0E022116170477047000076
:1013400010B51348006840F00100114908600846D4
:101350004068104908400E494860084600680E4938
:1013600008400B4908600846006820F480200860A7
:101370000846406820F4FE0048604FF41F00886073
:10138000FFF753FF4FF000600449086010BD0000F4
:10139000001002400000FFF8FFFFF6FE08ED00E03D
:1013A00010B50121054800F044F830B1012103488F
:1013B00000F03CF802480068804710BD002C014056
:1013C0004800002010B50121880700F032F830B144
:1013D0000121880700F02AF801480068804710BD05
:1013E0004C00002010B50121054800F022F830B172
:1013F0000121034800F01AF802480068804710BD38
:10140000000400405000002010B50121054800F004
:1014100010F830B10121034800F008F802480068D4
:10142000804710BD0008004054000020CA430282DB
:10143000704730B50246002000230024158A05EAD3
:101440000103958905EA010413B10CB1012000E004
:10145000002030BD10B540F225511D4800F0F4F8D1
:10146000B8B140F225511A4800F0C6F8184800F00B
:10147000A7F9044617480088402800DB10BD16492C
:10148000144A12888C5413480088401C1149088063
:101490001BE040F224410E4800F0D6F8A8B140F21B
:1014A00024410B4800F0A8F8094800F089F90446E7
:1014B000084801880848094A1268904740210648B0
:1014C000FEF737FE00200349088000BFD6E7000082
:1014D000003801403000002090000020340000203F
:1014E00010B540F225511D4800F0AEF8B8B140F2F9
:1014F00025511A4800F080F8184800F061F90446B8
:1015000017480088402800DB10BD1649144A12888D
:101510008C5413480088401C114908801BE040F29D
:1015200024410E4800F090F8A8B140F224410B4845
:1015300000F062F8094800F043F9044608480188C1
:101540000848094A1268904740210648FEF7F1FD15
:1015500000200349088000BFD6E700000044004097
:1015600038000020D00000203C00002010B540F2E0
:1015700025511D4800F068F8B8B140F225511A48CD
:1015800000F03AF8184800F01BF9044617480088A4
:10159000FF2800DD10BD1649144A12888C541348E8
:1015A0000088401C114908801CE040F224410E488C
:1015B00000F04AF8B0B140F224410B4800F01CF8AA
:1015C000094800F0FDF80446084801880848094A1F
:1015D000126890474FF480710548FEF7AAFD00207D
:1015E0000249088000BFD5E70048004040000020C5
:1015F000100100204400002010B50022002340F616
:101600006A14A14200D100BF0A1201249440A3B27F
:10161000DC43048010BD21B1828942F400528281F2
:1016200004E082894DF6FF731A40828170470246BA
:101630000020B1F5007F00D100BF13880B400BB133
:10164000012000E00020704770B50246002400230E
:101650000025002040F66A16B14200D100BFC1F358
:10166000421501F01F03012606FA03F3012D02D1F2
:101670009689334006E0022D02D1168A334001E0FC
:10168000968A33400C12012606FA04F41688344078
:1016900013B10CB1012000E0002070BDF0B503468D
:1016A000002400260025002040F66A17B94200D128
:1016B00000BF1846C1F3421401F01F06012707FAC4
:1016C00006F5012C01D10C3004E0022C01D11030C0
:1016D00000E014301AB107682F43076002E0076882
:1016E000AF430760F0BD00002DE9F04786B0054626
:1016F0000E460024A24600BFA1460027B08900B1D3
:1017000000BF2F462C8A4CF6FF700440F08804433B
:101710002C82AC894EF6F3100440B088318908431E
:10172000718908430443AC81AC8A4FF6FF40044002
:10173000B0890443AC8201A8FFF70CFD1F48874223
:1017400002D1DDF810A001E0DDF80CA0A88900F4BA
:10175000004040B10AEBCA0000EB0A1031684900B2
:10176000B0FBF1F807E00AEBCA0000EB0A103168A1
:101770008900B0FBF1F86420B8FBF0F00401200907
:10178000642101FB1089A88900F4004040B1322097
:1017900000EBC900B0FBF1F000F00700044308E0E3
:1017A000322000EB09106421B0FBF1F000F00F00D3
:1017B00004432C8106B0BDE8F087000000380140EA
:1017C00001468888C0F308007047C1F30802828090
:1017D000704700BFFEE7000037B514460846064BC9
:1017E0006A46214600F0DCF804466946002000F015
:1017F0006EFC20463EBD0000CF20000802E008C875
:10180000121F08C1002AFAD170477047002001E07A
:1018100001C1121F002AFBD1704700002DE9FF5FB4
:1018200082B00021DDE90430020DDDF840B0034351
:1018300018D044F61050A2F2FF324243151411980A
:1018400001281FD0A5EB0B00401C5FEA000A4FF0F7
:1018500000064E4FDFF83891B046504615D5CAF114
:10186000000413E0119801244AA3012801D16FEA72
:101870000B010298119AC0E90031C0E9024206B09A
:10188000BDE8F09FCBF10000DFE704460021404AAD
:10189000491842EB0450CDE9001012E0E00707D0F0
:1018A00032463B4640464946FEF74EFC8046894656
:1018B00032463B4610461946FEF746FC06460F46A2
:1018C0006410002CEAD1DDE90401DDE90023BAF15E
:1018D000000F06DAFEF738FC42464B46FEF734FCB2
:1018E00005E0FEF7A3FC42464B46FEF79FFC04468C
:1018F0000E460022284BFEF7E9FE03D84FF0FF30DA
:10190000014607E00022254B20463146FEF71FFE28
:10191000FEF7C4FE102409E0002C0ADB0A22002393
:10192000FEF750FD039B30321A55641E50EA010247
:10193000F2D1641C039AC4F111031444119A012AD0
:1019400003D0012208430DD10AE0084304D000204F
:101950004FF0110B119072E7A3EB0B056D1E0DE01C
:101960005B4504DD4FF0000205F1010504E003DAF8
:101970004FF00002A5F10105002AECD00298119960
:10198000C0E90231C0E9004579E7000000001440D9
:101990000000F03F300000000000F0430000E03F96
:1019A0002DE9FF4F95B09B468946064600250FE27C
:1019B000252877D100242746F84A0121059400E024
:1019C000044316F8013F203B01FA03F01042F7D11F
:1019D00030782A2811D06FF02F033078A0F1300230
:1019E000092A16D8059A44F0020402EB820203EB9E
:1019F00042021044761C0590EFE759F8042B05923B
:101A0000002A03DA504244F40054059044F00204E2
:101A1000761C30782E2816D116F8010F44F00404F5
:101A20002A280DD06FF02F023078A0F13003092B57
:101A300009D807EB870302EB4303C718761CF3E7CB
:101A400059F8047B761C30786C280FD006DC4C28C3
:101A500017D068280DD06A2814D104E0742810D05B
:101A60007A280FD10DE044F400140AE044F4801405
:101A700001E044F440147278824202D104F58014EB
:101A8000761C761C307866280BD013DC582877D06B
:101A900009DC002875D04528F6D04628F4D0472820
:101AA0001AD19DE118E0632835D0642879D06528E3
:101AB00012D195E1702873D008DC6728F1D069282D
:101AC0006FD06E280DD06F2806D1B5E073282CD0CA
:101AD000752875D0782874D05A46179990476D1C90
:101AE00075E1C4F30250022809D003280DD0D9F8BB
:101AF000001004280DD00D6009F1040967E1D9F840
:101B00000010EA17C1E90052F6E7D9F800100D807D
:101B1000F2E70D70F0E719F8041B8DF800100020B3
:101B20008DF80100EA46012003E059F804AB4FF0BC
:101B3000FF3061074FF0000102D40DE008F1010110
:101B40008846B9420FDA8045F8DB1AF808100029F8
:101B5000F4D108E008F1010188468142FADB1AF865
:101B600008100029F6D105985B46A0EB080721462E
:101B70003846179A00F094FA284400EB080507E06D
:101B80004DE029E10DE01AF8010B5A4617999047EC
:101B9000B8F10108F7D25B4621463846179A13E19F
:101BA00042E00A220092C4F302524FF0000A022AD5
:101BB00008D059F804CB032A4FEAEC710AD00DE0A3
:101BC00029E02AE009F1070121F00702F2E802C149
:101BD000914609E00FFA8CFC4FEAEC71042A03D11C
:101BE0004FFA8CFC4FEAEC71002907DA0A46002113
:101BF000DCF1000C61EB02012D2202E0220504D58C
:101C00002B228DF80420012203E0E20701D02022DC
:101C1000F7E7904659E00A2102E010220DE010217A
:101C20004FF0000A00910BE010224FF0000A44F040
:101C300004040827009203E008224FF0000A0092F3
:101C4000C4F30252022A05D059F804CB0021032A1A
:101C500008D009E009F1070121F00702F2E802C10A
:101C6000914605E01FFA8CFC042A01D10CF0FF0C10
:101C70004FF00008220728D5702806D0009B83F07B
:101C8000100353EA0A0305D00EE040228DF8042029
:101C9000012208E05CEA010206D030228DF804201F
:101CA0008DF8050002229046009B83F0080353EA5A
:101CB0000A030AD15CEA010201D1620705D530228C
:101CC0008DF804204FF001087F1E582804D034A05E
:101CD00003900EA802900DE036A0F9E75346604647
:101CE000009AFEF76FFB84460398825C0298401EC0
:101CF000029002705CEA0100F0D1029806A9081A6D
:101D000000F1200A600702D524F4803400E00127A6
:101D1000574502DDA7EB0A0000E0002000EB0A01B6
:101D2000009005984144401A0590E00306D45B46B4
:101D30002146179A059800F0B3F90544002706E0FC
:101D400001A85A46C05D179990476D1C7F1C4745F6
:101D5000F6DBE0030CD55B462146179A059800F0A8
:101D60009FF9054404E030205A46179990476D1CAE
:101D70000099481E00900029F5DC08E002980299BD
:101D80005A460078491C0291179990476D1CBAF188
:101D90000001AAF1010AF1DC65E100000928010057
:101DA00030313233343536373839616263646566D1
:101DB0000000000030313233343536373839414293
:101DC000434445460000000000F058F90544761CE5
:101DD000307800287FF4ECAD19B02846BDE8F08FCC
:101DE000620700D4062709F1070222F0070CFCE87D
:101DF0000223E14603F000485FEA080C02D00FF22C
:101E0000702C0DE05FEA045C02D50FF2682C07E04D
:101E10005FEAC47C02D00FF2602C01E0AFF2700CDC
:101E20004FF0FF3823F00043CDF850C065280CD0A8
:101E300006DC452809D046281DD047283DD13DE085
:101E4000662818D067287ED138E00021112F01DBE9
:101E5000112000E0781CCDE9000106A90EA8FFF7CB
:101E6000DDFCDDE90F010E9A03910021009207F1DC
:101E7000010A04914DE04FF000400097CDE90110B8
:101E800006A90EA8FFF7CAFCDDE90F0203920E9B1C
:101E900011990022DDF80CA00093049211B9791C6D
:101EA00000EB010AB7EB0A0004D4C0F1FF3007F1E0
:101EB000010A0490AAEB0700019044E0012F00DA28
:101EC00001270021112F01DD112000E03846CDE966
:101ED000000106A90EA8FFF7A1FCDDE90F010E9A8B
:101EE0000391002104910092BA4621070CD4039972
:101EF000514500DA8A46BAF1010F05DD009AAAF1D0
:101F00000101515C302908D0B84202DA10F1040F07
:101F100006DA0121CDE9011015E0AAF10101E9E796
:101F2000002805DC049901440491AAEB000102E0B9
:101F3000411C514500DD8A460499401A401C01901D
:101F40004FF000400290200704D40198504501DB77
:101F5000CDF8048000208DF84F0002980DF14F0756
:101F6000B0F1004F25D02B200E9002984FF00208C0
:101F700000280CDA404202902D200E9007E00A2142
:101F80000298FEF709FA3031029007F8011DB8F106
:101F90000001A8F10108F2DC02980028EFD1791EB7
:101FA0000E980870307800F0200040F0450007F8E7
:101FB000020D12A8C01B00F107081498007800B1A8
:101FC000012000EB0A01019801EBE0710598414402
:101FD000401A401E0590E00306D45B462146179A3E
:101FE000059800F05DF805441498007818B15A4639
:101FF000179990476D1CE00324D55B462146179A3C
:10200000059800F04DF805441CE00498002807DB13
:10201000DDE90301884203DD0098405C179901E087
:10202000179930205A469047049805F10105401C45
:1020300004900198401E019004D12E205A46179911
:1020400090476D1CBAF10001AAF1010ADDDC05E040
:1020500017F8010B5A46179990476D1CB8F100010B
:10206000A8F10108F4DC5B462146179A0598ABE617
:102070002D0000002B000000200000002DE9F041A1
:10208000044600251E461746880404D405E0394658
:102090002020B0476D1C641EF9D52846BDE8F081AC
:1020A0002DE9F041044600251E469046C80301D59F
:1020B000302700E02027880404D505E04146384653
:1020C000B0476D1C641EF9D52846BDE8F0810A684A
:1020D000531C0B60107070471CB54FF4A060FEF7E6
:1020E00029FCFEF773FEFEF739FCFEF791FFFEF7C1
:1020F00073FDFEF7B3FCFEF79FFC01201F4908604B
:102100003BE01F481F49204B204ACDE900102049E1
:102110002048FEF72FFF1F480068FEF704F91EA2B3
:10212000CDE9000100210846FEF702FE18480068CC
:10213000FEF7F9F81AA2CDE9000100210220FEF70E
:10214000F7FD0F480068FEF7EEF817A2CDE9000191
:1021500000210420FEF7ECFD15480068FEF7D5F8D5
:102160000446074801682046FEF70CF902D8002013
:10217000024908600520FEF70FFCC2E7A481214256
:102180008800002084000020800000207C000020C7
:102190007800002074000020563A25332E33660064
:1021A000493A25332E336600573A25332E336600DD
:1021B0008C00002000000000000000000000000073
:1021C00000000000000000F80000000000000033E4
:1021D0000000000000100C02100C020000000000C3
:1021E000000000000040C07840C0780000043F04B8
:1021F000043F040000708888FC083000001820208C
:10220000FF211E00F008F0806018000000310C0370
:102210001E211E0000F00888700000001E21232CE3
:102220001927211000120E0000000000000000001D
:1022300000000000000000E0180402000000000799
:102240001820400000020418E000000000402018A0
:1022500007000000404080F0804040000202010F73
:102260000102020000000000E00000000001010186
:102270000F0101010000000000000000009070004C
:10228000000000000000000000000000000101014B
:1022900001010100000000000000000000303000DB
:1022A0000000000000000000C038040000601807B3
:1022B0000000000000E010080810E000000F1020EF
:1022C00020100F0000001010F80000000000202077
:1022D0003F202000007008080808F0000030282483
:1022E00022213000003008080888700000182021E2
:1022F00021221C000000804030F800000006052468
:10230000243F242400F88888880808000019202029
:1023100020110E0000E0108888900000000F1120AE
:1023200020201F0000180808886818000000003EE0
:10233000010000000070880808887000001C22213D
:1023400021221C0000F008080810E0000001122201
:1023500022110F00000000C0C0000000000000308B
:10236000300000000000008000000000000000E0DD
:10237000000000000000804020100800000102045E
:10238000081020000040404040404000000202028F
:102390000202020000081020408000000020100807
:1023A0000402010000704808088870000000003036
:1023B00037000000C030C828E810E00007182728C0
:1023C0002F2817000000C038E0000000203C230246
:1023D0000227382008F8888888700000203F2020D5
:1023E00020110E00C0300808080838000718202007
:1023F0002010080008F808080810E000203F2020FE
:1024000020100F0008F88888E8081000203F2020DE
:102410002320180008F88888E8081000203F2000D2
:1024200003000000C030080808380000071820200A
:10243000221E020008F808000008F808203F2101C9
:1024400001213F20000808F8080800000020203F74
:102450002020000000000808F8080800C0808080E4
:102460007F00000008F888C028180800203F2001DD
:102470002638200008F8080000000000203F202037
:102480002020300008F8F800F8F80800203F013E4E
:10249000013F200008F830C00008F808203F200065
:1024A00007183F00E01008080810E0000F10202077
:1024B00020100F0008F808080808F000203F21014C
:1024C00001010000E01008080810E0000F102828A3
:1024D00030504F0008F8888888887000203F20001E
:1024E000030C3020007088080808380000382021CC
:1024F00021221C00180808F8080818000000203FD6
:102500002000000008F808000008F808001F20203C
:1025100020201F000878880000C83808000007380D
:102520000E01000008F800F800F8080000033E0162
:102530003E030000081868808068180820302C03CB
:10254000032C30200838C800C83808000000203F9D
:102550002000000010080808C8380800203826218C
:1025600020201800000000FE020202000000007F90
:1025700040404000000438C000000000000000019E
:102580000638C00000020202FE0000000040404089
:102590007F000000000004020204000000000000B0
:1025A000000000000000000000000000808080802B
:1025B0008080808000020204000000000000000013
:1025C000000000000000808080000000001924242A
:1025D000123F200010F0008080000000003F11201A
:1025E00020110E000000008080800000000E1120ED
:1025F00020201100000080808090F000001F20202B
:1026000020103F200000808080800000001F2424D4
:1026100024241700008080E0909020000020203FBC
:10262000202000000000808080808000006B949457
:102630009493600010F0008080800000203F210013
:1026400000203F2000809898000000000020203FDC
:1026500020200000000000809898000000C08080CA
:10266000807F000010F0000080808000203F240662
:1026700029302000001010F8000000000020203F4A
:10268000202000008080808080808000203F20000B
:102690003F20003F8080008080800000203F21009C
:1026A00000203F200000808080800000001F20204C
:1026B00020201F00808000808000000080FF91208B
:1026C00020110E000000008080008000000E11200C
:1026D0002091FF80808080008080800020203F212A
:1026E00020000100000080808080800000332424CE
:1026F00024241900008080E0808000000000001F7A
:10270000202010008080000000808000001F20201A
:1027100020103F20808080008080800000030C30EB
:102720000C0300008080008080008080010E300C4F
:102730000738060100808080008080000020310E74
:102740002E3120008080800000808080008186788B
:102750001806010000808080808080000021302CDD
:10276000222130000000000000FC020200000000F6
:10277000013E404000000000FF000000000000009B
:10278000FF0000000202FC000000000040403E018B
:10279000000000000002010202040200000000002C
:1027A0000000000000000000000000000000000029
:1027B0000000000000000000000000000000000019
:1027C0000000000000000000000000000000000009
:1027D00000000000000000000000000000000000F9
:1027E00000000000000000000000000000000000E9
:1027F00000000000808080C0C0E0E0E0E0F0F0F089
:10280000F0F0F0F0F0F0F0F0F0F0F0F0F0E0E0E0F8
:10281000C0C0C0C0808000000000000000000000B8
:1028200000000000000000000000C0E0F0F0F8FC34
:10283000FEFEFFFFFFFFFFFFFFFFFFFF7F0F010116
:1028400000000000000000000001010101031F7FE3
:10285000FFFFFFFFFFFFFFFFFFFEFCFCF8F0F0E0D3
:10286000C0000000000000007CFFFFFFFFFFFFFF33
:10287000FFFFFFFFFFFFFF7FBFDFC7C1C08000007A
:1028800000000000000000000000000080C0C0C088
:10289000C1030F1F3F7FFFFFFFFFFFFFFFFFFFFF92
:1028A000FFFFFC000000000000000103FFFFFFFF2E
:1028B000FF0303030101000007070F0F07030000D8
:1028C0000000C0C0C0C0C0C08000000007070F0FDC
:1028D00007010000000000010183FFFFFFFF030369
:1028E00003010000000000000000000001071F3F7E
:1028F0007FFEFCF8F0E0E0C0C08080000000081C13
:10290000383831333F3F3F333138381C08000080BE
:102910008080C0E0E0F0F8FCFE7F3F1F070300006E
:1029200000000000000000000000000000000000A7
:1029300000000001030307070F0F0F1F1F1F1E1EBC
:102940001E3E3E3E3E3E3E3E1E1E1E1E1F1F1F0FD3
:102950000F0F070703030100000000000000000044
:102960000000000000000000000000000000000067
:102970000000000000000000000000000000000057
:102980000000000000000000000000000000000047
:102990000000000000000000000000000000000037
:1029A00000000000C4290008000000209000000082
:1029B000FC170008542A0008900000208005000041
:1029C0000C18000800A24A040000000000000000EB
:1029D00001020304060708090000000001020304C5
:1029E00001020304060708090204060800000000AB
:1029F00000000000000000000000000000000000D7
:102A000000000000000000000000000000000000C6
:102A100000000000000000000000000000000000B6
:102A200000000000000000000000000000000000A6
:102A30000000000000000000000000000000000096
:102A40000000000000000000000000000000000086
:042A50000200000080
:04000005080000ED02
:00000001FF
