:020000040800F2
:10000000C8050020010100089103000889030008C9
:100010008D0300086D020008A1090008000000001F
:10002000000000000000000000000000550500086E
:100030007102000800000000A9030008690600081A
:100040001B0100081B0100081B0100081B01000820
:100050001B0100081B0100081B0100081B01000810
:100060001B0100081B0100081B0100081B01000800
:100070001B0100081B0100081B0100081B010008F0
:100080001B0100081B0100081B0100081B010008E0
:100090001B0100081B0100081B0100081B010008D0
:1000A0001B010008CD0600081B0100081B01000809
:1000B000F106000811070008350700081B010008B9
:1000C0001B0100081B0100081B0100081B010008A0
:1000D0001B010008810700080D08000899080008A6
:1000E0001B0100081B0100081B010008DFF80CD0F1
:1000F00000F02AF800480047C3090008C80500209E
:100100000648804706480047FEE7FEE7FEE7FEE7B1
:10011000FEE7FEE7FEE7FEE7FEE7FEE76D06000806
:10012000ED000008D2B201E000F8012B491EFBD21D
:1001300070470022F6E710B513460A4604461946F2
:10014000FFF7F0FF204610BD064C074D06E0E068C3
:1001500040F0010394E8070098471034AC42F6D30E
:10016000FFF7C8FFE0090008000A000821B1826813
:1001700042F00102826003E0826822F001028260A4
:100180007047000010B504461248844208D101218E
:10019000401500F0CFF90021601500F0CBF917E011
:1001A0000D48844208D10121001500F0C3F9002157
:1001B000201500F0BFF90BE00848844208D1012166
:1001C000C80300F0B7F900214FF4004000F0B2F985
:1001D00010BD00000024014000280140003C014007
:1001E000014600208A6802F004020AB1012000E002
:1001F00000207047014600208A6802F008020AB118
:10020000012000E00020704730B5024600200023A6
:1002100050680F4C20400D790C6844EA05242043B7
:10022000506090680B4C2040D1E902542C434D792A
:1002300044EA450420439060D06A20F470000C7CAE
:10024000641EE4B2234340EA0350D06230BD000094
:10025000FFFEF0FFFDF7F1FF816841F008018160CA
:100260007047816841F004018160704700BFFEE77C
:1002700070472DE9F04102460025002600200023AA
:100280000024002791F803C00CF00F0591F803C07B
:100290000CF0100CBCF1000F03D091F802C04CEA36
:1002A000050591F800C0BCF1000F31D014680020A2
:1002B0002BE04FF0010C0CFA00F3B1F800C00CEA8F
:1002C00003069E4220D183004FF00F0C0CFA03F777
:1002D000BC4305FA03FC4CEA040491F803C0BCF1EA
:1002E000280F06D14FF0010C0CFA00FCC2F814C024
:1002F0000AE091F803C0BCF1480F05D14FF0010CA2
:100300000CFA00FCC2F810C0401C0828D1D31460BD
:10031000B1F800C0BCF1FF0F34DD546800202EE0BE
:1003200000F1080C4FF0010808FA0CF3B1F800C016
:100330000CEA03069E4221D183004FF00F0C0CFA09
:1003400003F7BC4305FA03FC4CEA040491F803C02C
:10035000BCF1280F05D100F1080C08FA0CF8C2F81E
:10036000148091F803C0BCF1480F07D100F1080CCC
:100370004FF0010808FA0CF8C2F81080401C082859
:10038000CED35460BDE8F08100BFFEE700BFFEE7BA
:100390007047000002490143024A116070470000A3
:1003A0000000FA050CED00E07047000000B587B0D2
:1003B0001220ADF8180000208DF81B0003208DF8E6
:1003C0001A0006A91948FFF754FF1948FFF7DAFE8B
:1003D000002001908DF808008DF809004FF460208E
:1003E00003900020049001208DF8140001A910480A
:1003F000FFF70AFF4FF4004000F070F801210C48AD
:10040000FFF7B4FE0A48FFF727FF00BF0848FFF7D1
:10041000F1FE0128FAD00648FFF723FF00BF044889
:10042000FFF7DEFE0028FAD107B000BD000801404A
:100430000024014010B56FF0040000F001F90848F5
:100440000068C0080749B0FBF1F00749086008469A
:1004500000684FF47A7148430449086010BD0000F9
:100460000000002040420F0014000020180000206F
:1004700001460020114A12684A434FF0E0235A61B6
:1004800000229A611A46126942F001021A6100BF05
:100490004FF0E022106900F001021AB100F480323E
:1004A000002AF5D04FF0E022126922F001024FF04D
:1004B000E0231A6100229A617047000018000020B2
:1004C00010B5012144F60D2000F024F80121024866
:1004D00000F010F810BD00000700060001460020E3
:1004E000034A506820F440400843506070470000C1
:1004F0000010024029B1064AD2690243044BDA6176
:1005000004E0034AD2698243014BDA61704700007C
:100510000010024029B1064A92690243044B9A61D5
:1005200004E0034A92698243014B9A6170470000DC
:100530000010024029B1064AD2680243044BDA6037
:1005400004E0034AD2688243014BDA60704700003E
:1005500000100240704710B500F002F810BD000016
:100560000CB50020019000903348006840F48030C2
:100570003149086000BF3048006800F40030009046
:100580000198401C0190009818B90198B0F5A06F2F
:10059000F1D12948006800F4003010B1012000902A
:1005A00001E0002000900098012843D12348006812
:1005B00040F01000214908600846006820F0030060
:1005C00008600846006840F0020008601A48406869
:1005D000194948600846406848600846406840F449
:1005E000806048600846406820F47C1048600846F7
:1005F000406840F4E81048600846006840F08070A9
:10060000086000BF0C48006800F000700028F9D0B6
:100610000948406820F003000749486008464068E0
:1006200040F00200486000BF0348406800F00C0042
:100630000828F9D10CBD0000001002400020024043
:10064000042808D14FF0E021096941F004014FF07E
:10065000E022116107E04FF0E021096921F0040177
:100660004FF0E022116170477047000010B5134849
:10067000006840F0010011490860084640681049D0
:1006800008400E494860084600680E4908400B497A
:1006900008600846006820F480200860084640682A
:1006A00020F4FE0048604FF41F008860FFF753FFFE
:1006B0004FF000600449086010BD000000100240C7
:1006C0000000FFF8FFFFF6FE08ED00E010B5012185
:1006D000054800F044F830B10121034800F03CF82F
:1006E00002480068804710BD002C01403400002003
:1006F00010B50121880700F032F830B101218807D8
:1007000000F02AF801480068804710BD380000203A
:1007100010B50121054800F022F830B1012103484D
:1007200000F01AF802480068804710BD000400403D
:100730003C00002010B50121054800F010F830B150
:100740000121034800F008F802480068804710BD06
:100750000008004040000020CA430282704730B5C4
:100760000246002000230024158A05EA010395892A
:1007700005EA010413B10CB1012000E0002030BDF6
:1007800010B540F225511D4800F0DBF8B8B140F239
:1007900025511A4800F0C6F8184800F0FCF8044645
:1007A00017480088402800DB10BD1649144A1288FB
:1007B0008C5413480088401C114908801BE040F20B
:1007C00024410E4800F0BDF8A8B140F224410B4886
:1007D00000F0A8F8094800F0DEF80446084801884F
:1007E0000848094A1268904740210648FFF7A1FCD3
:1007F00000200349088000BFD6E700000038014010
:100800001C000020440000202000002010B540F211
:1008100025511D4800F095F8B8B140F225511A480D
:1008200000F080F8184800F0B6F804461748008831
:10083000402800DB10BD1649144A12888C54134816
:100840000088401C114908801BE040F224410E48FA
:1008500000F077F8A8B140F224410B4800F062F8AC
:10086000094800F098F80446084801880848094AF1
:100870001268904740210648FFF75BFC00200349BF
:10088000088000BFD6E7000000440040240000209C
:10089000840000202800002010B540F225511D489A
:1008A00000F04FF8B8B140F225511A4800F03AF87C
:1008B000184800F070F8044617480088FF2800DD4B
:1008C00010BD1649144A12888C5413480088401CE5
:1008D000114908801CE040F224410E4800F031F834
:1008E000B0B140F224410B4800F01CF8094800F078
:1008F00052F80446084801880848094A1268904797
:100900004FF480710548FFF714FC0020024908806D
:1009100000BFD5E7004800402C000020C4000020A4
:100920003000002010B50022002340F66A14A142D6
:1009300000D100BF0A1201249440A3B2DC4304801A
:1009400010BD70B50246002400230025002040F6AB
:100950006A16B14200D100BFC1F3421501F01F0376
:10096000012606FA03F3012D02D19689334006E0F1
:10097000022D02D1168A334001E0968A33400C12D0
:10098000012606FA04F41688344013B10CB1012094
:1009900000E0002070BD01468888C0F30800704761
:1009A00000BFFEE702E008C8121F08C1002AFAD102
:1009B00070477047002001E001C1121F002AFBD1DF
:1009C00070474FF4A060FFF7E5FCFFF779FDFFF7F4
:1009D00031FDFFF7EBFC02E00520FFF749FDFBE7E7
:1009E000000A00080000002044000000A4090008DC
:1009F000440A00084400002084050000B4090008EF
:100A000000A24A04000000000000000001020304EC
:100A100006070809000000000000000000000000B8
:100A200000000000000000000000000000000000C6
:100A300000000000000000000000000000000000B6
:040A400000000000B2
:04000005080000ED02
:00000001FF
