:020000040800F2
:100000002805002001010008B1040008A904000827
:10001000AD04000899010008830B000800000000EF
:100020000000000000000000000000005106000871
:100030009D01000800000000390500086507000860
:100040001B0100081B0100081B0100081B01000820
:100050001B0100081B0100089F0100086102000845
:100060007B02000895020008AF0200081B0100088F
:100070001B0100081B0100081B0100081B010008F0
:100080001B0100081B0100081B0100081B010008E0
:100090001B0100081B0100081B010008C902000821
:1000A0001B0100081B0100081B0100081B010008C0
:1000B0001B0100081B0100081B0100081B010008B0
:1000C0001B0100081B0100081B0100081B010008A0
:1000D0001B010008C90700085908000801090008A9
:1000E000B70100081B0100081B010008DFF80CD055
:1000F00000F040F800480047A10E00082805002045
:100100000648804706480047FEE7FEE7FEE7FEE7B1
:10011000FEE7FEE7FEE7FEE7FEE7FEE76907000809
:10012000ED000008D2B201E000F8012B491EFBD21D
:1001300070470022F6E710B513460A4604461946F2
:10014000FFF7F0FF204610BD30B50B4601460020FA
:100150002022012409E021FA02F59D4205D303FA89
:1001600002F5491B04FA02F52844151EA2F101020A
:10017000F1DC30BD064C074D06E0E06840F00103BD
:1001800094E8070098471034AC42F6D3FFF7B2FF6B
:10019000781200089812000800BFFEE7704710B5FB
:1001A000012000F0D9F8012804D100F0CFF8012097
:1001B00000F00AFE10BD10B54FF4004000F0CCF87E
:1001C000012807D1C00300F0C1F84FF4004000F04F
:1001D000FBFD44E04FF4804000F0BEF8012807D159
:1001E000800300F0B3F84FF4804000F0EDFD36E0FE
:1001F0004FF4005000F0B0F8012807D1400300F0A0
:10020000A5F84FF4005000F0DFFD28E04FF48050D7
:1002100000F0A2F8012807D1000300F097F84FF48E
:10022000805000F0D1FD1AE04FF4006000F094F827
:10023000012807D1C00200F089F84FF4006000F0F7
:10024000C3FD0CE04FF4806000F086F8012806D171
:10025000800200F07BF84FF4806000F0B5FD10BD27
:1002600010B5022000F078F8012805D1022000F036
:100270006DF8022000F0A8FD10BD10B5042000F0BC
:100280006BF8012805D1042000F060F8042000F08C
:100290009BFD10BD10B5082000F05EF8012805D1C7
:1002A000082000F053F8082000F08EFD10BD10B5B6
:1002B000102000F051F8012805D1102000F046F878
:1002C000102000F081FD10BD10B54FF4007000F05B
:1002D00043F8012807D1400200F038F84FF40070CD
:1002E00000F072FD30E04FF4807000F035F8012826
:1002F00007D1000200F02AF84FF4807000F064FD8E
:1003000022E0802000F028F8012806D1802000F0AB
:100310001DF8802000F058FD16E0402000F01CF889
:10032000012806D1402000F011F8402000F04CFDDB
:100330000AE0202000F010F8012805D1202000F06C
:1003400005F8202000F040FD10BD000001490860C4
:100350007047000014040140014600200022074BB2
:100360001B6803EA0102054B14331B680B4013B1F1
:100370000AB1012000E000207047000000040140A5
:100380002DE9F0410246002500260020002300242C
:10039000002791F803C00CF00F0591F803C00CF092
:1003A000100CBCF1000F03D091F802C04CEA050517
:1003B00091F800C0BCF1000F31D0146800202BE090
:1003C0004FF0010C0CFA00F3B1F800C00CEA030680
:1003D0009E4220D183004FF00F0C0CFA03F7BC4370
:1003E00005FA03FC4CEA040491F803C0BCF1280FA1
:1003F00006D14FF0010C0CFA00FCC2F814C00AE060
:1004000091F803C0BCF1480F05D14FF0010C0CFA74
:1004100000FCC2F810C0401C0828D1D31460B1F809
:1004200000C0BCF1FF0F34DD546800202EE000F165
:10043000080C4FF0010808FA0CF3B1F800C00CEA00
:1004400003069E4221D183004FF00F0C0CFA03F7F4
:10045000BC4305FA03FC4CEA040491F803C0BCF168
:10046000280F05D100F1080C08FA0CF8C2F8148026
:1004700091F803C0BCF1480F07D100F1080C4FF010
:10048000010808FA0CF8C2F81080401C0828CED3E6
:100490005460BDE8F0810246002093680B400BB128
:1004A000012000E00020704700BFFEE700BFFEE72C
:1004B0007047000070B5002100230F22C47804B3F8
:1004C000154C246804F4E064C4F5E064210AC1F129
:1004D0000403CA40447804FA03F1847814402143A9
:1004E00009010E4C0678A155047804F01F0501247B
:1004F000AC4005786D11AD0005F1E025C5F800416F
:1005000009E0047804F01F050124AC40044D06788E
:10051000761145F8264070BD0CED00E000E400E0E7
:1005200080E100E002490143024A11607047000087
:100530000000FA050CED00E07047000029B1064A02
:10054000D2690243044BDA6104E0034AD269824370
:10055000014BDA61704700000010024029B1064AE1
:1005600092690243044B9A6104E0034A9269824310
:10057000014B9A61704700000010024030B5002125
:100580000022002400232D4D6D6805F00C0121B1DF
:10059000042905D0082923D105E0294D056022E072
:1005A000274D05601FE0254D6D6805F47012234D41
:1005B0006D6805F48034022505EB92421CB9214D8B
:1005C000554305600BE01D4D6D6805F400351DB108
:1005D0001C4D5543056002E0194D5543056002E08E
:1005E000174D056000BF00BF144D6D6805F0F001A8
:1005F0000909154D6B5C0568DD4045600F4D6D6860
:1006000005F4E061090A104D6B5C4568DD408560CA
:100610000A4D6D6805F46051C90A0B4D6B5C456865
:10062000DD40C560054D6D6805F44041890B074DFF
:100630006B5CC568B5FBF3F5056130BD0010024089
:1006400000127A0000093D00180000202800002058
:10065000704710B500F002F810BD00000CB5002086
:10066000019000903348006840F4803031490860C0
:1006700000BF3048006800F4003000900198401C32
:100680000190009818B90198B0F5A06FF1D12948F0
:10069000006800F4003010B10120009001E000205B
:1006A00000900098012843D12348006840F01000D2
:1006B000214908600846006820F0030008600846E9
:1006C000006840F0020008601A4840681949486014
:1006D0000846406848600846406840F480604860CA
:1006E0000846406820F47C1048600846406840F4A2
:1006F000E81048600846006840F08070086000BF5D
:100700000C48006800F000700028F9D009484068E3
:1007100020F00300074948600846406840F00200A6
:10072000486000BF0348406800F00C000828F9D179
:100730000CBD00000010024000200240042808D137
:100740004FF0E021096941F004014FF0E02211610E
:1007500007E04FF0E021096921F004014FF0E022A9
:10076000116170477047000010B51348006840F0F1
:1007700001001149086008464068104908400E49C8
:100780004860084600680E4908400B490860084662
:10079000006820F4802008600846406820F4FE00CD
:1007A00048604FF41F008860FFF753FF4FF0006070
:1007B0000449086010BD0000001002400000FFF86E
:1007C000FFFFF6FE08ED00E010B540F2255120488D
:1007D00000F012F908B340F225511D4800F0E4F88A
:1007E0001B4800F0C5F904461A49496C194A54548B
:1007F0001046406C401C114648640846406C402836
:1008000025DB0846416C826C904700201149486402
:1008100040211048FFF78DFC19E040F224410C48BC
:1008200000F0EAF898B140F22441094800F0BCF821
:10083000074800F09DF904460648416C826C9047D9
:1008400000200449486440210248FFF772FC10BDB3
:10085000003801404400002010B540F225512648E0
:1008600000F0CAF848B340F22551234800F09CF844
:10087000214800F07DF904462048D0F890204C3003
:1008800084544C38D0F89000401C1C49C1F89000AA
:100890000846D0F8900040282DDB0846D0F890108C
:1008A000D0F894204C30904700211448C0F89010A4
:1008B00040214C30FFF73DFC1DE040F224410E4842
:1008C00000F09AF8B8B140F224410B4800F06CF8FF
:1008D000094800F04DF904460848D0F89010D0F8C7
:1008E00094204C30904700210448C0F890104021DB
:1008F0004C30FFF71EFC10BD0044004044000020B7
:1009000010B540F22551264800F076F848B340F281
:100910002551234800F048F8214800F029F9044601
:100920002048D0F8DC20983084549838D0F8DC0087
:10093000401C1C49C1F8DC000846D0F8DC00402807
:100940002DDB0846D0F8DC10D0F8E0209830904736
:1009500000211448C0F8DC1040219830FFF7E9FB73
:100960001DE040F224410E4800F046F8B8B140F2D4
:1009700024410B4800F018F8094800F0F9F8044643
:100980000848D0F8DC10D0F8E020983090470021DB
:100990000448C0F8DC1040219830FFF7CAFB10BDB6
:1009A000004800404400002010B50022002340F61B
:1009B0006A14A14200D100BF0A1201249440A3B2DC
:1009C000DC43048010BD21B1828942F4005282814F
:1009D00004E082894DF6FF731A4082817047024617
:1009E0000020B1F5007F00D100BF13880B400BB190
:1009F000012000E00020704770B50246002400236B
:100A00000025002040F66A16B14200D100BFC1F3B4
:100A1000421501F01F03012606FA03F3012D02D14E
:100A20009689334006E0022D02D1168A334001E058
:100A3000968A33400C12012606FA04F416883440D4
:100A400013B10CB1012000E0002070BDF0B50346E9
:100A5000002400260025002040F66A17B94200D184
:100A600000BF1846C1F3421401F01F06012707FA20
:100A700006F5012C01D10C3004E0022C01D110301C
:100A800000E014301AB107682F43076002E00768DE
:100A9000AF430760F0BD00002DE9F04786B0054682
:100AA0000E460024A24600BFA1460027B08900B12F
:100AB00000BF2F462C8A4CF6FF700440F088044398
:100AC0002C82AC894EF6F3100440B088318908437B
:100AD000718908430443AC81AC8A4FF6FF4004405F
:100AE000B0890443AC8201A8FFF748FD1F48874244
:100AF00002D1DDF810A001E0DDF80CA0A88900F417
:100B0000004040B10AEBCA0000EB0A10316849000E
:100B1000B0FBF1F807E00AEBCA0000EB0A103168FD
:100B20008900B0FBF1F86420B8FBF0F00401200963
:100B3000642101FB1089A88900F4004040B13220F3
:100B400000EBC900B0FBF1F000F00700044308E03F
:100B5000322000EB09106421B0FBF1F000F00F002F
:100B600004432C8106B0BDE8F08700000038014046
:100B700001468888C0F308007047C1F308028280EC
:100B8000704700BFFEE700000FB4054B10B503A986
:100B9000044A029800F018F810BC5DF814FB00003D
:100BA000950D00084000002002E008C8121F08C18F
:100BB000002AFAD170477047002001E001C1121FDE
:100BC000002AFBD1704700002DE9FF4F8BB09A46F9
:100BD0000F460546002606E025280BD052460D9903
:100BE00090476D1C761C28780028F5D10FB0304650
:100BF000BDE8F08F0024A0460122604900E00443D4
:100C000015F8013F203B02FA03F00842F7D128789B
:100C10002E2817D115F8010F44F004042A280ED00D
:100C20006FF02F022878A0F1300109290AD808EBCB
:100C3000880102EB410100EB01086D1CF2E757F857
:100C4000048B6D1C287869283ED006DC0028CDD0A6
:100C500063280BD0642804D136E0732810D075289F
:100C60004BD052460D999047761C85E017F8040B3F
:100C70008DF8000000208DF80100E946012003E016
:100C800057F8049B4FF0FF3061074FF0000401D488
:100C90000AE0641C44450DDA8442FADB19F80410BA
:100CA0000029F6D106E0641C8442FCDB19F804102C
:100CB0000029F8D1264404E019F8010B52460D9999
:100CC0009047641EF8D257E001CF4FF00A0B00287E
:100CD00002DA40422D2102E0210504D52B218DF8B6
:100CE0002410012103E0E10705D02021F7E70DF1F1
:100CF000200908910CE00021F9E701CF4FF00A0B21
:100D0000F9E75946FFF720FA01F1300209F8012D01
:100D10000028F6D1ADEB090000F1200B600701D4EB
:100D20004FF00108D84502DDA8EB0B0000E00020E1
:100D30008046002406E009A85246005D0D999047C0
:100D4000641C761C08988442F5DB04E0302052468F
:100D50000D999047761CB8F10001A8F10108F5DC67
:100D600005E019F8010B52460D999047761CBBF12E
:100D70000001ABF1010BF4DC6D1C34E70928010024
:100D8000002001E000BF401C01498842FADB7047A7
:100D9000C027090070B504460D4600BF80210948F0
:100DA000FFF71DFE0028F9D0E1B20648FFF7E5FE87
:100DB00000BF40210348FFF712FE0028F9D00020B1
:100DC00070BD0000003801402DE9F04106460025C5
:100DD000304805680027002454E0C4EBC40005EB4C
:100DE0008000008BB0424CD1C4EBC40205EB820200
:100DF000118BC4EBC40205EB82025069FFF74BFB79
:100E00000746C4EBC40005EB8000807E08B90120D2
:100E100000E00020B84233D1FFF7B2FFC4EBC402B8
:100E200005EB8202118BC4EBC40205EB8202506910
:100E3000FFF731FB0746C4EBC40005EB8000807E62
:100E400008B9012000E00020B84219D1C4EBC40069
:100E500005EB8000807E08B9012000E00020C4EB93
:100E6000C40105EB81018876C4EBC40205EB820264
:100E7000917EC4EBC40205EB8200074A12689047DA
:100E800004E0641C054800788442A6DB00BFBDE88E
:100E9000F0810000040000200C0000200000002071
:100EA00000F0BAF94FF4A060FFF73CFB00F0C0F986
:100EB000124800224FF4E1310368104698470F486A
:100EC0000F494268002090470C4800224FF4E1315E
:100ED00003680120984709480A4942680120904761
:100EE000064800224FF4E131036802209847034886
:100EF000054942680220904700BFFEE76C120008D7
:100F0000DD0F0008F90F0008111000082DE9F0416D
:100F100007460C46154627B1012F1AD0022F48D19B
:100F20002FE0002612E000BF80212348FFF757FD85
:100F30000028F9D0A15D2048FFF71FFE00BF402127
:100F40001D48FFF74CFD0028F9D0761CAE42EADBC5
:100F50002FE0002612E000BF80211848FFF73FFD78
:100F60000028F9D0A15D1548FFF707FE00BF40211A
:100F70001248FFF734FD0028F9D0761CAE42EADBB8
:100F800017E0002612E000BF80210D48FFF727FD83
:100F90000028F9D0A15D0A48FFF7EFFD00BF40210E
:100FA0000748FFF71CFD0028F9D0761CAE42EADBAB
:100FB00000BF00BFBDE8F0810038014000440040A0
:100FC0000048004000EB400202EB0012024B03EB32
:100FD00082029164704700004400002070B504460E
:100FE0000D462A46214602A0FFF7CEFD70BD000047
:100FF00025732D256400000070B504460D46034896
:101000002A46214683680120984770BD6C1200086B
:1010100070B504460D4603482A46214683680220DF
:10102000984770BD6C12000870B586B006460C4635
:10103000154626B1012E4DD0022E4AD193E04FF431
:101040000070ADF8140018208DF8170003208DF8FB
:10105000160005A96B48FFF793F94FF48060ADF8CF
:10106000140004208DF8170005A96648FFF788F9D9
:1010700001940C20ADF80E000020ADF80800ADF88A
:101080000A00ADF80C00ADF8100001A95E48FFF7AA
:1010900003FD01215C48FFF796FC25208DF8000038
:1010A00001208DF8030002208DF8010000208DF84A
:1010B00002006846FFF7FEF95DB9012240F22551B2
:1010C0005148FFF7C3FC012240F224414E48FFF78C
:1010D000BDFC93E00420ADF8140018208DF8170033
:1010E00003208DF8160005A94648FFF749F90820A6
:1010F000ADF8140004208DF8170005A94148FFF74A
:101100003FF901940C20ADF80E000020ADF8080066
:10111000ADF80A00ADF80C00ADF8100001A93B488D
:10112000FFF7BAFC01213948FFF74DFC26208DF866
:10113000000001208DF8030002208DF8010000203E
:101140008DF802006846FFF7B5F95DB9012240F25B
:1011500025512E48FFF77AFC012240F224412B480A
:10116000FFF774FC4AE04FF48060ADF814001820DB
:101170008DF8170003208DF8160005A92448FFF705
:10118000FFF84FF40060ADF8140004208DF817004C
:1011900005A91F48FFF7F4F801940C20ADF80E00E4
:1011A0000020ADF80800ADF80A00ADF80C00ADF86D
:1011B000100001A91748FFF76FFC01211548FFF740
:1011C00002FC27208DF8000001208DF8030002208A
:1011D0008DF8010000208DF802006846FFF76AF9DB
:1011E0005DB9012240F225510A48FFF72FFC012288
:1011F00040F224410748FFF729FC00BF00BF06B0BA
:1012000070BD00000008014000380140004400406B
:10121000000C01400048004010B5012144F21D00BF
:10122000FFF79CF901214FF4C020FFF787F910BDAB
:1012300010B56FF00400FFF781FA08480068C00895
:101240000749B0FBF1F007490860084600684FF411
:101250007A7148430449086010BD00002C0000204A
:1012600040420F0010000020140000202910000848
:10127000C50F00080D0F000898120008000000209C
:1012800044000000A80B0008DC1200084400002005
:10129000E4040000B80B000800000000000000009B
:1012A000000000000000000000000000000000003E
:1012B00000000000010203040102030406070809FC
:1012C0000204060800A24A0400000000000000001A
:0C12D000010203040607080900000000EA
:04000005080000ED02
:00000001FF
