:020000040800F2
:1000000010050020010100089F0100089701000869
:100010009B0100086D010008E506000800000000D3
:1000200000000000000000000000000019020008AD
:100030009501000800000000B50100082D0300082C
:100040001B0100081B0100081B0100081B01000820
:100050001B0100081B0100081B0100081B01000810
:100060001B0100081B0100081B0100081B01000800
:100070001B0100081B0100081B0100081B010008F0
:100080001B0100081B0100081B0100081B010008E0
:100090001B0100081B0100081B0100081B010008D0
:1000A0001B0100081B0100081B0100081B010008C0
:1000B0001B0100081B0100081B0100081B010008B0
:1000C0001B0100081B0100081B0100081B010008A0
:1000D0001B01000891030008710400086D05000869
:1000E0001B0100081B0100081B010008DFF80CD0F1
:1000F00000F02AF800480047070700081005002014
:100100000648804706480047FEE7FEE7FEE7FEE7B1
:10011000FEE7FEE7FEE7FEE7FEE7FEE73103000845
:10012000ED000008D2B201E000F8012B491EFBD21D
:1001300070470022F6E710B513460A4604461946F2
:10014000FFF7F0FF204610BD064C074D06E0E068C3
:1001500040F0010394E8070098471034AC42F6D30E
:10016000FFF7C8FF7C0700089C07000800BFFEE7F8
:1001700021B1026842F00102026004E002684FF619
:10018000FE731A40026070470146486880B27047AB
:1001900041607047704700BFFEE700BFFEE7704751
:1001A00002490143024A1160704700000000FA054D
:1001B0000CED00E07047000029B1064A5269024385
:1001C000044B5A6104E0034A52698243014B5A616D
:1001D000704700000010024029B1064AD26902436C
:1001E000044BDA6104E0034AD2698243014BDA61CD
:1001F000704700000010024029B1064A926902438C
:10020000044B9A6104E0034A92698243014B9A616C
:100210007047000000100240704710B500F002F86F
:1002200010BD00000CB5002001900090334800681C
:1002300040F480303149086000BF3048006800F465
:10024000003000900198401C0190009818B9019866
:10025000B0F5A06FF1D12948006800F4003010B16A
:100260000120009001E0002000900098012843D177
:100270002348006840F010002149086008460068E3
:1002800020F0030008600846006840F002000860A3
:100290001A4840681949486008464068486008465E
:1002A000406840F4806048600846406820F47C1054
:1002B00048600846406840F4E81048600846006816
:1002C00040F08070086000BF0C48006800F00070CB
:1002D0000028F9D00948406820F003000749486029
:1002E0000846406840F00200486000BF034840688C
:1002F00000F00C000828F9D10CBD000000100240ED
:1003000000200240042808D14FF0E021096941F0A3
:1003100004014FF0E022116107E04FF0E02109698C
:1003200021F004014FF0E022116170477047000096
:1003300010B51348006840F00100114908600846F4
:100340004068104908400E494860084600680E4958
:1003500008400B4908600846006820F480200860C7
:100360000846406820F4FE0048604FF41F00886093
:10037000FFF753FF4FF000600449086010BD000014
:10038000001002400000FFF8FFFFF6FE08ED00E05D
:1003900070B540F22551334800F075F908B340F2CA
:1003A0002551304800F060F92E4800F096F90446D7
:1003B0002D49496C2C4A54541046406C401C11463F
:1003C00048640846406C40284ADB0846416C826C11
:1003D000904700202449486440212348FFF7A9FEA4
:1003E0003EE040F224411F4800F04DF9002837D08C
:1003F00040F224411B4800F037F91A4800F06DF92B
:100400000446194890F84C0058B91748416C826C62
:10041000904700201449486440211348FFF789FEA3
:100420001EE0114890F84C00012819D100210F4816
:10043000FFF79EFE0D48FFF7A7FEC0F140050A48F2
:100440002946826C904740210748FFF772FE402101
:100450000648FFF79DFE01210448FFF789FE00BF13
:1004600070BD0000003801401C0000205800024010
:1004700070B540F225513A4800F005F948B340F212
:100480002551374800F0F0F8354800F026F90446C9
:100490003448D0F89420503084545038D0F8940028
:1004A000401C3049C1F894000846D0F89400402818
:1004B00055DB0846D0F89410D0F89820503090477B
:1004C00000212848C0F8941040215030FFF731FE39
:1004D00045E040F22441224800F0D5F800283ED003
:1004E00040F224411E4800F0BFF81D4800F0F5F826
:1004F00004461C4890F89C0078B91A48D0F894102B
:10050000D0F898205030904700211648C0F8941039
:1005100040215030FFF70DFE21E0124890F89C007A
:1005200001281CD100211048FFF722FE0E48FFF7DA
:100530002BFEC0F140050B482946D0F898205030DA
:100540009047402107485030FFF7F3FD402106480F
:10055000FFF71EFE01210448FFF70AFE00BF70BD31
:10056000004400401C0000206C00024070B540F2C6
:1005700025513A4800F087F848B340F225513748F2
:1005800000F072F8354800F0A8F804463448D0F876
:10059000E420A0308454A038D0F8E400401C304956
:1005A000C1F8E4000846D0F8E400402855DB0846CE
:1005B000D0F8E410D0F8E820A03090470021284877
:1005C000C0F8E4104021A030FFF7B3FD45E040F251
:1005D0002441224800F057F800283ED040F2244140
:1005E0001E4800F041F81D4800F077F804461C480A
:1005F00090F8EC0078B91A48D0F8E410D0F8E82068
:10060000A030904700211648C0F8E4104021A030E7
:10061000FFF78FFD21E0124890F8EC0001281CD173
:1006200000211048FFF7A4FD0E48FFF7ADFDC0F113
:1006300040050B482946D0F8E820A03090474021DB
:100640000748A030FFF775FD40210648FFF7A0FDE1
:1006500001210448FFF78CFD00BF70BD0048004039
:100660001C0000203000024010B50022002340F69C
:100670006A14A14200D100BF0A1201249440A3B21F
:10068000DC43048010BD70B5024600240023002521
:10069000002040F66A16B14200D100BFC1F34215F6
:1006A00001F01F03012606FA03F3012D02D19689FA
:1006B000334006E0022D02D1168A334001E0968ACB
:1006C00033400C12012606FA04F41688344013B1A4
:1006D0000CB1012000E0002070BD01468888C0F305
:1006E0000800704700BFFEE702E008C8121F08C1FB
:1006F000002AFAD170477047002001E001C1121FA3
:10070000002AFBD1704700F009F84FF4A060FFF712
:1007100047FD00F015F800BFFEE7000010B501210D
:1007200044F21D00FFF768FD01210448FFF754FD66
:1007300001210846FFF740FD10BD00000100060042
:1007400010B56FF00400FFF7DDFD08480068C00831
:100750000749B0FBF1F007490860084600684FF40C
:100760007A7148430449086010BD00000800002069
:1007700040420F0000000020040000209C070008F9
:10078000000000201C000000E8060008B807000870
:100790001C000020F4040000F8060008000000001F
:1007A0000000000000A24A04000000000000000059
:0807B000010203040607080919
:04000005080000ED02
:00000001FF
