:020000040800F2
:100000009006002089010008470400083F0400080A
:100010004304000845020008F9050008000000003C
:100020000000000000000000000000008104000843
:1000300049020008000000005D0400089505000862
:10004000A3010008A3010008A3010008A301000800
:10005000A3010008A30100084B0200080D030008DB
:1000600027030008410300085B030008A301000800
:10007000A3010008A3010008A3010008A3010008D0
:10008000A3010008A3010008A3010008A3010008C0
:10009000A3010008A3010008A301000875030008DC
:1000A000A3010008A3010008A3010008A3010008A0
:1000B000A3010008A3010008A3010008A301000890
:1000C000A3010008A3010008A3010008A301000880
:1000D000A3010008A3010008A3010008A301000870
:1000E00063020008A3010008A301000800F002F861
:1000F00000F03AF80AA090E8000C82448344AAF188
:100100000107DA4501D100F02FF8AFF2090EBAE885
:100110000F0013F0010F18BFFB1A43F0010318473B
:100120003C0600005C060000103A24BF78C878C185
:10013000FAD8520724BF30C830C144BF04680C60ED
:10014000704700000023002400250026103A28BF35
:1001500078C1FBD8520728BF30C148BF0B60704739
:100160001FB51FBD10B510BD00F037F81146FFF7E1
:10017000F7FF00F0B9FA00F055F803B4FFF7F2FF0B
:1001800003BC00F059F800000948804709480047BF
:10019000FEE7FEE7FEE7FEE7FEE7FEE7FEE7FEE737
:1001A000FEE7FEE704480549054A064B7047000094
:1001B00099050008ED00000890000020900600203E
:1001C00090020020900200207047704770470000A6
:1001D000004870472C00002070477546FFF7F8FF75
:1001E000AE4605006946534620F00700854618B024
:1001F00020B5FFF7D7FFBDE820404FF000064FF0D5
:1002000000074FF000084FF0000B21F00701AC464B
:10021000ACE8C009ACE8C009ACE8C009ACE8C0096A
:100220008D46704710B50446AFF300802046BDE808
:100230001040FFF7A2BF000001491820ABBEFEE747
:100240002600020000BFFEE7704710B5012000F055
:10025000D9F8012804D100F0CFF8012000F0D8F936
:1002600010BD10B54FF4004000F0CCF8012807D1C4
:10027000C00300F0C1F84FF4004000F0C9F944E0B9
:100280004FF4804000F0BEF8012807D1800300F051
:10029000B3F84FF4804000F0BBF936E04FF4005063
:1002A00000F0B0F8012807D1400300F0A5F84FF4A2
:1002B000005000F0ADF928E04FF4805000F0A2F8B3
:1002C000012807D1000300F097F84FF4805000F0A8
:1002D0009FF91AE04FF4006000F094F8012807D16C
:1002E000C00200F089F84FF4006000F091F90CE0D2
:1002F0004FF4806000F086F8012806D1800200F0FB
:100300007BF84FF4806000F083F910BD10B5022037
:1003100000F078F8012805D1022000F06DF80220E5
:1003200000F076F910BD10B5042000F06BF801283C
:1003300005D1042000F060F8042000F069F910BD38
:1003400010B5082000F05EF8012805D1082000F063
:1003500053F8082000F05CF910BD10B5102000F033
:1003600051F8012805D1102000F046F8102000F0C7
:100370004FF910BD10B54FF4007000F043F801289C
:1003800007D1400200F038F84FF4007000F040F957
:1003900030E04FF4807000F035F8012807D10002FA
:1003A00000F02AF84FF4807000F032F922E080204B
:1003B00000F028F8012806D1802000F01DF88020E8
:1003C00000F026F916E0402000F01CF8012806D1C4
:1003D000402000F011F8402000F01AF90AE0202037
:1003E00000F010F8012805D1202000F005F82020A9
:1003F00000F00EF910BD00000149086070470000D0
:1004000014040140014600200022074B1B6803EA48
:100410000102054B14331B680B4013B10AB10120D4
:1004200000E0002070470000000401400246002068
:1004300093680B400BB1012000E00020704700BF23
:10044000FEE700BFFEE7704702490143024A116020
:10045000704700000000FA050CED00E07047000056
:1004600029B1064A92690243044B9A6104E0034AA7
:1004700092698243014B9A6170470000001002406C
:10048000704710B500F002F810BD00000CB5002058
:10049000019000903348006840F480303149086092
:1004A00000BF3048006800F4003000900198401C04
:1004B0000190009818B90198B0F5A06FF1D12948C2
:1004C000006800F4003010B10120009001E000202D
:1004D00000900098012843D12348006840F01000A4
:1004E000214908600846006820F0030008600846BB
:1004F000006840F0020008601A48406819494860E6
:100500000846406848600846406840F4806048609B
:100510000846406820F47C1048600846406840F473
:10052000E81048600846006840F08070086000BF2E
:100530000C48006800F000700028F9D009484068B5
:1005400020F00300074948600846406840F0020078
:10055000486000BF0348406800F00C000828F9D14B
:100560000CBD00000010024000200240042808D109
:100570004FF0E021096941F004014FF0E0221161E0
:1005800007E04FF0E021096921F004014FF0E0227B
:10059000116170477047000010B51348006840F0C3
:1005A00001001149086008464068104908400E499A
:1005B0004860084600680E4908400B490860084634
:1005C000006820F4802008600846406820F4FE009F
:1005D00048604FF41F008860FFF753FF4FF0006042
:1005E0000449086010BD0000001002400000FFF840
:1005F000FFFFF6FE08ED00E000BFFEE7002001E08F
:1006000000BF401C01498842FADB7047C02709003F
:100610002DE9F041064600253048056800270024F2
:1006200054E0C4EBC40005EB8000008BB0424CD119
:10063000C4EBC40205EB8202118BC4EBC40205EBD0
:1006400082025069FFF7F2FE0746C4EBC40005EBD7
:100650008000807E08B9012000E00020B84233D13C
:10066000FFF7CCFFC4EBC40205EB8202118BC4EB95
:10067000C40205EB82025069FFF7D8FE0746C4EBBF
:10068000C40005EB8000807E08B9012000E0002056
:10069000B84219D1C4EBC40005EB8000807E08B9D4
:1006A000012000E00020C4EBC40105EB8101887645
:1006B000C4EBC40205EB8202917EC4EBC40205EBDD
:1006C0008200074A1268904704E0641C05480078DD
:1006D0008442A6DB00BFBDE8F081000004000020DA
:1006E0000C0000200000002000F008F84FF4A0608B
:1006F000FFF7AAFE00F014F800BFFEE710B50121D5
:100700000420FFF7ADFE01210820FFF7A9FE01211B
:100710001020FFF7A5FE01210846FFF7A1FE10BD3E
:1007200010B56FF00400FFF721FF08480068C0080B
:100730000749B0FBF1F007490860084600684FF42C
:100740007A7148430449086010BD00001800002079
:1007500040420F0010000020140000207C07000819
:10076000000000202C00000028010008A807000855
:100770002C00002064060000440100080000000076
:100780000000000000000000000000000000000069
:100790000000000000A24A04000000000000000069
:0807A000010203040607080929
:04000005080000ED02
:00000001FF
